{
	"contracts/checkpointoracle/contract/oracle.sol": {
		"CheckpointOracle": {
			"abi": [
				{
					"inputs": [
						{
							"internalType": "address[]",
							"name": "_adminlist",
							"type": "address[]"
						},
						{
							"internalType": "uint256",
							"name": "_sectionSize",
							"type": "uint256"
						},
						{
							"internalType": "uint256",
							"name": "_processConfirms",
							"type": "uint256"
						},
						{
							"internalType": "uint256",
							"name": "_threshold",
							"type": "uint256"
						}
					],
					"stateMutability": "nonpayable",
					"type": "constructor"
				},
				{
					"anonymous": false,
					"inputs": [
						{
							"indexed": true,
							"internalType": "uint64",
							"name": "index",
							"type": "uint64"
						},
						{
							"indexed": false,
							"internalType": "bytes32",
							"name": "checkpointHash",
							"type": "bytes32"
						},
						{
							"indexed": false,
							"internalType": "uint8",
							"name": "v",
							"type": "uint8"
						},
						{
							"indexed": false,
							"internalType": "bytes32",
							"name": "r",
							"type": "bytes32"
						},
						{
							"indexed": false,
							"internalType": "bytes32",
							"name": "s",
							"type": "bytes32"
						}
					],
					"name": "NewCheckpointVote",
					"type": "event"
				},
				{
					"inputs": [],
					"name": "GetAllAdmin",
					"outputs": [
						{
							"internalType": "address[]",
							"name": "",
							"type": "address[]"
						}
					],
					"stateMutability": "view",
					"type": "function"
				},
				{
					"inputs": [],
					"name": "GetLatestCheckpoint",
					"outputs": [
						{
							"internalType": "uint64",
							"name": "",
							"type": "uint64"
						},
						{
							"internalType": "bytes32",
							"name": "",
							"type": "bytes32"
						},
						{
							"internalType": "uint256",
							"name": "",
							"type": "uint256"
						}
					],
					"stateMutability": "view",
					"type": "function"
				},
				{
					"inputs": [
						{
							"internalType": "uint256",
							"name": "_recentNumber",
							"type": "uint256"
						},
						{
							"internalType": "bytes32",
							"name": "_recentHash",
							"type": "bytes32"
						},
						{
							"internalType": "bytes32",
							"name": "_hash",
							"type": "bytes32"
						},
						{
							"internalType": "uint64",
							"name": "_sectionIndex",
							"type": "uint64"
						},
						{
							"internalType": "uint8[]",
							"name": "v",
							"type": "uint8[]"
						},
						{
							"internalType": "bytes32[]",
							"name": "r",
							"type": "bytes32[]"
						},
						{
							"internalType": "bytes32[]",
							"name": "s",
							"type": "bytes32[]"
						}
					],
					"name": "SetCheckpoint",
					"outputs": [
						{
							"internalType": "bool",
							"name": "",
							"type": "bool"
						}
					],
					"stateMutability": "nonpayable",
					"type": "function"
				}
			],
			"devdoc": {
				"author": "Gary Rong<garyrong@ethereum.org>, Martin Swende <martin.swende@ethereum.org>",
				"details": "Implementation of the blockchain checkpoint registrar.",
				"methods": {
					"GetAllAdmin()": {
						"details": "Get all admin addresses",
						"returns": {
							"_0": "address list"
						}
					},
					"GetLatestCheckpoint()": {
						"details": "Get latest stable checkpoint information.",
						"returns": {
							"_0": "section index",
							"_1": "checkpoint hash",
							"_2": "block height associated with checkpoint"
						}
					}
				},
				"title": "CheckpointOracle"
			},
			"evm": {
				"assembly": "    /* \"contracts/checkpointoracle/contract/oracle.sol\":211:5742  contract CheckpointOracle {... */\n  mstore(0x40, 0x80)\n    /* \"contracts/checkpointoracle/contract/oracle.sol\":503:879  constructor(address[] memory _adminlist, uint _sectionSize, uint _processConfirms, uint _threshold) public {... */\n  callvalue\n    /* \"--CODEGEN--\":8:17   */\n  dup1\n    /* \"--CODEGEN--\":5:7   */\n  iszero\n  tag_1\n  jumpi\n    /* \"--CODEGEN--\":30:31   */\n  0x00\n    /* \"--CODEGEN--\":27:28   */\n  dup1\n    /* \"--CODEGEN--\":20:32   */\n  revert\n    /* \"--CODEGEN--\":5:7   */\ntag_1:\n    /* \"contracts/checkpointoracle/contract/oracle.sol\":503:879  constructor(address[] memory _adminlist, uint _sectionSize, uint _processConfirms, uint _threshold) public {... */\n  pop\n  mload(0x40)\n  sub(codesize, bytecodeSize)\n  dup1\n  bytecodeSize\n  dup4\n  codecopy\n  dup2\n  dup2\n  add\n  0x40\n  mstore\n    /* \"--CODEGEN--\":13:16   */\n  0x80\n    /* \"--CODEGEN--\":8:11   */\n  dup2\n    /* \"--CODEGEN--\":5:17   */\n  lt\n    /* \"--CODEGEN--\":2:4   */\n  iszero\n  tag_2\n  jumpi\n    /* \"--CODEGEN--\":30:31   */\n  0x00\n    /* \"--CODEGEN--\":27:28   */\n  dup1\n    /* \"--CODEGEN--\":20:32   */\n  revert\n    /* \"--CODEGEN--\":2:4   */\ntag_2:\n    /* \"contracts/checkpointoracle/contract/oracle.sol\":503:879  constructor(address[] memory _adminlist, uint _sectionSize, uint _processConfirms, uint _threshold) public {... */\n  dup2\n  add\n  swap1\n  dup1\n  dup1\n  mload\n  mload(0x40)\n  swap4\n  swap3\n  swap2\n  swap1\n  dup5\n    /* \"--CODEGEN--\":19:30   */\n  0x0100000000\n    /* \"--CODEGEN--\":14:17   */\n  dup3\n    /* \"--CODEGEN--\":11:31   */\n  gt\n    /* \"--CODEGEN--\":8:10   */\n  iszero\n  tag_3\n  jumpi\n    /* \"--CODEGEN--\":44:45   */\n  0x00\n    /* \"--CODEGEN--\":41:42   */\n  dup1\n    /* \"--CODEGEN--\":34:46   */\n  revert\n    /* \"--CODEGEN--\":8:10   */\ntag_3:\n    /* \"--CODEGEN--\":71:82   */\n  dup4\n    /* \"--CODEGEN--\":66:69   */\n  dup3\n    /* \"--CODEGEN--\":62:83   */\n  add\n    /* \"--CODEGEN--\":55:83   */\n  swap2\n  pop\n    /* \"--CODEGEN--\":123:127   */\n  0x20\n    /* \"--CODEGEN--\":118:121   */\n  dup3\n    /* \"--CODEGEN--\":114:128   */\n  add\n    /* \"--CODEGEN--\":159:168   */\n  dup6\n    /* \"--CODEGEN--\":141:157   */\n  dup2\n    /* \"--CODEGEN--\":138:169   */\n  gt\n    /* \"--CODEGEN--\":135:137   */\n  iszero\n  tag_4\n  jumpi\n    /* \"--CODEGEN--\":182:183   */\n  0x00\n    /* \"--CODEGEN--\":179:180   */\n  dup1\n    /* \"--CODEGEN--\":172:184   */\n  revert\n    /* \"--CODEGEN--\":135:137   */\ntag_4:\n    /* \"--CODEGEN--\":219:222   */\n  dup3\n    /* \"--CODEGEN--\":213:223   */\n  mload\n    /* \"--CODEGEN--\":331:340   */\n  dup7\n    /* \"--CODEGEN--\":325:327   */\n  0x20\n    /* \"--CODEGEN--\":311:323   */\n  dup3\n    /* \"--CODEGEN--\":307:328   */\n  mul\n    /* \"--CODEGEN--\":289:305   */\n  dup4\n    /* \"--CODEGEN--\":285:329   */\n  add\n    /* \"--CODEGEN--\":282:341   */\n  gt\n    /* \"--CODEGEN--\":261:272   */\n  0x0100000000\n    /* \"--CODEGEN--\":247:259   */\n  dup3\n    /* \"--CODEGEN--\":244:273   */\n  gt\n    /* \"--CODEGEN--\":233:349   */\n  or\n    /* \"--CODEGEN--\":230:232   */\n  iszero\n  tag_5\n  jumpi\n    /* \"--CODEGEN--\":362:363   */\n  0x00\n    /* \"--CODEGEN--\":359:360   */\n  dup1\n    /* \"--CODEGEN--\":352:364   */\n  revert\n    /* \"--CODEGEN--\":230:232   */\ntag_5:\n    /* \"--CODEGEN--\":385:397   */\n  dup1\n    /* \"--CODEGEN--\":380:383   */\n  dup4\n    /* \"--CODEGEN--\":373:398   */\n  mstore\n    /* \"--CODEGEN--\":421:425   */\n  0x20\n    /* \"--CODEGEN--\":416:419   */\n  dup4\n    /* \"--CODEGEN--\":412:426   */\n  add\n    /* \"--CODEGEN--\":405:426   */\n  swap3\n  pop\n    /* \"--CODEGEN--\":0:433   */\n  pop\n  pop\n    /* \"contracts/checkpointoracle/contract/oracle.sol\":503:879  constructor(address[] memory _adminlist, uint _sectionSize, uint _processConfirms, uint _threshold) public {... */\n  swap1\n  dup1\n  mload\n  swap1\n  0x20\n  add\n  swap1\n  0x20\n  mul\n  dup1\n  dup4\n  dup4\n    /* \"--CODEGEN--\":23:24   */\n  0x00\n    /* \"--CODEGEN--\":8:108   */\ntag_6:\n    /* \"--CODEGEN--\":33:36   */\n  dup4\n    /* \"--CODEGEN--\":30:31   */\n  dup2\n    /* \"--CODEGEN--\":27:37   */\n  lt\n    /* \"--CODEGEN--\":8:108   */\n  iszero\n  tag_8\n  jumpi\n    /* \"--CODEGEN--\":99:100   */\n  dup1\n    /* \"--CODEGEN--\":94:97   */\n  dup3\n    /* \"--CODEGEN--\":90:101   */\n  add\n    /* \"--CODEGEN--\":84:102   */\n  mload\n    /* \"--CODEGEN--\":80:81   */\n  dup2\n    /* \"--CODEGEN--\":75:78   */\n  dup5\n    /* \"--CODEGEN--\":71:82   */\n  add\n    /* \"--CODEGEN--\":64:103   */\n  mstore\n    /* \"--CODEGEN--\":52:54   */\n  0x20\n    /* \"--CODEGEN--\":49:50   */\n  dup2\n    /* \"--CODEGEN--\":45:55   */\n  add\n    /* \"--CODEGEN--\":40:55   */\n  swap1\n  pop\n    /* \"--CODEGEN--\":8:108   */\n  jump(tag_6)\ntag_8:\n    /* \"--CODEGEN--\":12:26   */\n  pop\n    /* \"contracts/checkpointoracle/contract/oracle.sol\":503:879  constructor(address[] memory _adminlist, uint _sectionSize, uint _processConfirms, uint _threshold) public {... */\n  pop\n  pop\n  pop\n  swap1\n  pop\n  add\n  0x40\n  mstore\n  0x20\n  add\n  dup1\n  mload\n  swap1\n  0x20\n  add\n  swap1\n  swap3\n  swap2\n  swap1\n  dup1\n  mload\n  swap1\n  0x20\n  add\n  swap1\n  swap3\n  swap2\n  swap1\n  dup1\n  mload\n  swap1\n  0x20\n  add\n  swap1\n  swap3\n  swap2\n  swap1\n  pop\n  pop\n  pop\n    /* \"contracts/checkpointoracle/contract/oracle.sol\":625:631  uint i */\n  0x00\n    /* \"contracts/checkpointoracle/contract/oracle.sol\":634:635  0 */\n  dup1\n    /* \"contracts/checkpointoracle/contract/oracle.sol\":625:635  uint i = 0 */\n  swap1\n  pop\n    /* \"contracts/checkpointoracle/contract/oracle.sol\":620:761  for (uint i = 0; i < _adminlist.length; i++) {... */\ntag_11:\n    /* \"contracts/checkpointoracle/contract/oracle.sol\":641:651  _adminlist */\n  dup5\n    /* \"contracts/checkpointoracle/contract/oracle.sol\":641:658  _adminlist.length */\n  mload\n    /* \"contracts/checkpointoracle/contract/oracle.sol\":637:638  i */\n  dup2\n    /* \"contracts/checkpointoracle/contract/oracle.sol\":637:658  i < _adminlist.length */\n  lt\n    /* \"contracts/checkpointoracle/contract/oracle.sol\":620:761  for (uint i = 0; i < _adminlist.length; i++) {... */\n  iszero\n  tag_12\n  jumpi\n    /* \"contracts/checkpointoracle/contract/oracle.sol\":703:707  true */\n  0x01\n    /* \"contracts/checkpointoracle/contract/oracle.sol\":679:685  admins */\n  0x00\n    /* \"contracts/checkpointoracle/contract/oracle.sol\":679:700  admins[_adminlist[i]] */\n  dup1\n    /* \"contracts/checkpointoracle/contract/oracle.sol\":686:696  _adminlist */\n  dup8\n    /* \"contracts/checkpointoracle/contract/oracle.sol\":697:698  i */\n  dup5\n    /* \"contracts/checkpointoracle/contract/oracle.sol\":686:699  _adminlist[i] */\n  dup2\n  mload\n  dup2\n  lt\n  tag_14\n  jumpi\n  invalid\ntag_14:\n  0x20\n  mul\n  0x20\n  add\n  add\n  mload\n    /* \"contracts/checkpointoracle/contract/oracle.sol\":679:700  admins[_adminlist[i]] */\n  0xffffffffffffffffffffffffffffffffffffffff\n  and\n  0xffffffffffffffffffffffffffffffffffffffff\n  and\n  dup2\n  mstore\n  0x20\n  add\n  swap1\n  dup2\n  mstore\n  0x20\n  add\n  0x00\n  keccak256\n  0x00\n    /* \"contracts/checkpointoracle/contract/oracle.sol\":679:707  admins[_adminlist[i]] = true */\n  0x0100\n  exp\n  dup2\n  sload\n  dup2\n  0xff\n  mul\n  not\n  and\n  swap1\n  dup4\n  iszero\n  iszero\n  mul\n  or\n  swap1\n  sstore\n  pop\n    /* \"contracts/checkpointoracle/contract/oracle.sol\":721:730  adminList */\n  0x01\n    /* \"contracts/checkpointoracle/contract/oracle.sol\":736:746  _adminlist */\n  dup6\n    /* \"contracts/checkpointoracle/contract/oracle.sol\":747:748  i */\n  dup3\n    /* \"contracts/checkpointoracle/contract/oracle.sol\":736:749  _adminlist[i] */\n  dup2\n  mload\n  dup2\n  lt\n  tag_15\n  jumpi\n  invalid\ntag_15:\n  0x20\n  mul\n  0x20\n  add\n  add\n  mload\n    /* \"contracts/checkpointoracle/contract/oracle.sol\":721:750  adminList.push(_adminlist[i]) */\n  swap1\n  dup1\n    /* \"--CODEGEN--\":39:40   */\n  0x01\n    /* \"--CODEGEN--\":33:36   */\n  dup2\n    /* \"--CODEGEN--\":27:37   */\n  sload\n    /* \"--CODEGEN--\":23:41   */\n  add\n    /* \"--CODEGEN--\":57:67   */\n  dup1\n    /* \"--CODEGEN--\":52:55   */\n  dup3\n    /* \"--CODEGEN--\":45:68   */\n  sstore\n    /* \"--CODEGEN--\":79:89   */\n  dup1\n    /* \"--CODEGEN--\":72:89   */\n  swap2\n  pop\n    /* \"--CODEGEN--\":0:93   */\n  pop\n    /* \"contracts/checkpointoracle/contract/oracle.sol\":721:750  adminList.push(_adminlist[i]) */\n  0x01\n  swap1\n  sub\n  swap1\n  0x00\n  mstore\n  keccak256(0x00, 0x20)\n  add\n  0x00\n  swap1\n  swap2\n  swap1\n  swap2\n  swap1\n  swap2\n  0x0100\n  exp\n  dup2\n  sload\n  dup2\n  0xffffffffffffffffffffffffffffffffffffffff\n  mul\n  not\n  and\n  swap1\n  dup4\n  0xffffffffffffffffffffffffffffffffffffffff\n  and\n  mul\n  or\n  swap1\n  sstore\n  pop\n    /* \"contracts/checkpointoracle/contract/oracle.sol\":660:663  i++ */\n  dup1\n  dup1\n  0x01\n  add\n  swap2\n  pop\n  pop\n    /* \"contracts/checkpointoracle/contract/oracle.sol\":620:761  for (uint i = 0; i < _adminlist.length; i++) {... */\n  jump(tag_11)\ntag_12:\n  pop\n    /* \"contracts/checkpointoracle/contract/oracle.sol\":784:796  _sectionSize */\n  dup3\n    /* \"contracts/checkpointoracle/contract/oracle.sol\":770:781  sectionSize */\n  0x05\n    /* \"contracts/checkpointoracle/contract/oracle.sol\":770:796  sectionSize = _sectionSize */\n  dup2\n  swap1\n  sstore\n  pop\n    /* \"contracts/checkpointoracle/contract/oracle.sol\":824:840  _processConfirms */\n  dup2\n    /* \"contracts/checkpointoracle/contract/oracle.sol\":806:821  processConfirms */\n  0x06\n    /* \"contracts/checkpointoracle/contract/oracle.sol\":806:840  processConfirms = _processConfirms */\n  dup2\n  swap1\n  sstore\n  pop\n    /* \"contracts/checkpointoracle/contract/oracle.sol\":862:872  _threshold */\n  dup1\n    /* \"contracts/checkpointoracle/contract/oracle.sol\":850:859  threshold */\n  0x07\n    /* \"contracts/checkpointoracle/contract/oracle.sol\":850:872  threshold = _threshold */\n  dup2\n  swap1\n  sstore\n  pop\n    /* \"contracts/checkpointoracle/contract/oracle.sol\":503:879  constructor(address[] memory _adminlist, uint _sectionSize, uint _processConfirms, uint _threshold) public {... */\n  pop\n  pop\n  pop\n  pop\n    /* \"contracts/checkpointoracle/contract/oracle.sol\":211:5742  contract CheckpointOracle {... */\n  dataSize(sub_0)\n  dup1\n  dataOffset(sub_0)\n  0x00\n  codecopy\n  0x00\n  return\nstop\n\nsub_0: assembly {\n        /* \"contracts/checkpointoracle/contract/oracle.sol\":211:5742  contract CheckpointOracle {... */\n      mstore(0x40, 0x80)\n      callvalue\n        /* \"--CODEGEN--\":8:17   */\n      dup1\n        /* \"--CODEGEN--\":5:7   */\n      iszero\n      tag_1\n      jumpi\n        /* \"--CODEGEN--\":30:31   */\n      0x00\n        /* \"--CODEGEN--\":27:28   */\n      dup1\n        /* \"--CODEGEN--\":20:32   */\n      revert\n        /* \"--CODEGEN--\":5:7   */\n    tag_1:\n        /* \"contracts/checkpointoracle/contract/oracle.sol\":211:5742  contract CheckpointOracle {... */\n      pop\n      jumpi(tag_2, lt(calldatasize, 0x04))\n      shr(0xe0, calldataload(0x00))\n      dup1\n      0x45848dfc\n      eq\n      tag_3\n      jumpi\n      dup1\n      0x4d6a304c\n      eq\n      tag_4\n      jumpi\n      dup1\n      0xd459fc46\n      eq\n      tag_5\n      jumpi\n    tag_2:\n      0x00\n      dup1\n      revert\n        /* \"contracts/checkpointoracle/contract/oracle.sol\":4430:4697  function GetAllAdmin()... */\n    tag_3:\n      tag_6\n      tag_7\n      jump\t// in\n    tag_6:\n      mload(0x40)\n      dup1\n      dup1\n      0x20\n      add\n      dup3\n      dup2\n      sub\n      dup3\n      mstore\n      dup4\n      dup2\n      dup2\n      mload\n      dup2\n      mstore\n      0x20\n      add\n      swap2\n      pop\n      dup1\n      mload\n      swap1\n      0x20\n      add\n      swap1\n      0x20\n      mul\n      dup1\n      dup4\n      dup4\n        /* \"--CODEGEN--\":23:24   */\n      0x00\n        /* \"--CODEGEN--\":8:108   */\n    tag_8:\n        /* \"--CODEGEN--\":33:36   */\n      dup4\n        /* \"--CODEGEN--\":30:31   */\n      dup2\n        /* \"--CODEGEN--\":27:37   */\n      lt\n        /* \"--CODEGEN--\":8:108   */\n      iszero\n      tag_10\n      jumpi\n        /* \"--CODEGEN--\":99:100   */\n      dup1\n        /* \"--CODEGEN--\":94:97   */\n      dup3\n        /* \"--CODEGEN--\":90:101   */\n      add\n        /* \"--CODEGEN--\":84:102   */\n      mload\n        /* \"--CODEGEN--\":80:81   */\n      dup2\n        /* \"--CODEGEN--\":75:78   */\n      dup5\n        /* \"--CODEGEN--\":71:82   */\n      add\n        /* \"--CODEGEN--\":64:103   */\n      mstore\n        /* \"--CODEGEN--\":52:54   */\n      0x20\n        /* \"--CODEGEN--\":49:50   */\n      dup2\n        /* \"--CODEGEN--\":45:55   */\n      add\n        /* \"--CODEGEN--\":40:55   */\n      swap1\n      pop\n        /* \"--CODEGEN--\":8:108   */\n      jump(tag_8)\n    tag_10:\n        /* \"--CODEGEN--\":12:26   */\n      pop\n        /* \"contracts/checkpointoracle/contract/oracle.sol\":4430:4697  function GetAllAdmin()... */\n      pop\n      pop\n      pop\n      swap1\n      pop\n      add\n      swap3\n      pop\n      pop\n      pop\n      mload(0x40)\n      dup1\n      swap2\n      sub\n      swap1\n      return\n        /* \"contracts/checkpointoracle/contract/oracle.sol\":1070:1208  function GetLatestCheckpoint()... */\n    tag_4:\n      tag_11\n      tag_12\n      jump\t// in\n    tag_11:\n      mload(0x40)\n      dup1\n      dup5\n      0xffffffffffffffff\n      and\n      0xffffffffffffffff\n      and\n      dup2\n      mstore\n      0x20\n      add\n      dup4\n      dup2\n      mstore\n      0x20\n      add\n      dup3\n      dup2\n      mstore\n      0x20\n      add\n      swap4\n      pop\n      pop\n      pop\n      pop\n      mload(0x40)\n      dup1\n      swap2\n      sub\n      swap1\n      return\n        /* \"contracts/checkpointoracle/contract/oracle.sol\":1605:4344  function SetCheckpoint(... */\n    tag_5:\n      tag_13\n      0x04\n      dup1\n      calldatasize\n      sub\n        /* \"--CODEGEN--\":13:16   */\n      0xe0\n        /* \"--CODEGEN--\":8:11   */\n      dup2\n        /* \"--CODEGEN--\":5:17   */\n      lt\n        /* \"--CODEGEN--\":2:4   */\n      iszero\n      tag_14\n      jumpi\n        /* \"--CODEGEN--\":30:31   */\n      0x00\n        /* \"--CODEGEN--\":27:28   */\n      dup1\n        /* \"--CODEGEN--\":20:32   */\n      revert\n        /* \"--CODEGEN--\":2:4   */\n    tag_14:\n        /* \"contracts/checkpointoracle/contract/oracle.sol\":1605:4344  function SetCheckpoint(... */\n      dup2\n      add\n      swap1\n      dup1\n      dup1\n      calldataload\n      swap1\n      0x20\n      add\n      swap1\n      swap3\n      swap2\n      swap1\n      dup1\n      calldataload\n      swap1\n      0x20\n      add\n      swap1\n      swap3\n      swap2\n      swap1\n      dup1\n      calldataload\n      swap1\n      0x20\n      add\n      swap1\n      swap3\n      swap2\n      swap1\n      dup1\n      calldataload\n      0xffffffffffffffff\n      and\n      swap1\n      0x20\n      add\n      swap1\n      swap3\n      swap2\n      swap1\n      dup1\n      calldataload\n      swap1\n      0x20\n      add\n      swap1\n        /* \"--CODEGEN--\":21:32   */\n      0x0100000000\n        /* \"--CODEGEN--\":8:19   */\n      dup2\n        /* \"--CODEGEN--\":5:33   */\n      gt\n        /* \"--CODEGEN--\":2:4   */\n      iszero\n      tag_15\n      jumpi\n        /* \"--CODEGEN--\":46:47   */\n      0x00\n        /* \"--CODEGEN--\":43:44   */\n      dup1\n        /* \"--CODEGEN--\":36:48   */\n      revert\n        /* \"--CODEGEN--\":2:4   */\n    tag_15:\n        /* \"contracts/checkpointoracle/contract/oracle.sol\":1605:4344  function SetCheckpoint(... */\n      dup3\n      add\n        /* \"--CODEGEN--\":35:44   */\n      dup4\n        /* \"--CODEGEN--\":28:32   */\n      0x20\n        /* \"--CODEGEN--\":12:26   */\n      dup3\n        /* \"--CODEGEN--\":8:33   */\n      add\n        /* \"--CODEGEN--\":5:45   */\n      gt\n        /* \"--CODEGEN--\":2:4   */\n      iszero\n      tag_16\n      jumpi\n        /* \"--CODEGEN--\":58:59   */\n      0x00\n        /* \"--CODEGEN--\":55:56   */\n      dup1\n        /* \"--CODEGEN--\":48:60   */\n      revert\n        /* \"--CODEGEN--\":2:4   */\n    tag_16:\n        /* \"contracts/checkpointoracle/contract/oracle.sol\":1605:4344  function SetCheckpoint(... */\n      dup1\n      calldataload\n      swap1\n      0x20\n      add\n      swap2\n        /* \"--CODEGEN--\":101:110   */\n      dup5\n        /* \"--CODEGEN--\":95:97   */\n      0x20\n        /* \"--CODEGEN--\":81:93   */\n      dup4\n        /* \"--CODEGEN--\":77:98   */\n      mul\n        /* \"--CODEGEN--\":67:75   */\n      dup5\n        /* \"--CODEGEN--\":63:99   */\n      add\n        /* \"--CODEGEN--\":60:111   */\n      gt\n        /* \"--CODEGEN--\":39:50   */\n      0x0100000000\n        /* \"--CODEGEN--\":25:37   */\n      dup4\n        /* \"--CODEGEN--\":22:51   */\n      gt\n        /* \"--CODEGEN--\":11:119   */\n      or\n        /* \"--CODEGEN--\":8:10   */\n      iszero\n      tag_17\n      jumpi\n        /* \"--CODEGEN--\":132:133   */\n      0x00\n        /* \"--CODEGEN--\":129:130   */\n      dup1\n        /* \"--CODEGEN--\":122:134   */\n      revert\n        /* \"--CODEGEN--\":8:10   */\n    tag_17:\n        /* \"contracts/checkpointoracle/contract/oracle.sol\":1605:4344  function SetCheckpoint(... */\n      swap2\n      swap1\n      dup1\n      dup1\n      0x20\n      mul\n      0x20\n      add\n      mload(0x40)\n      swap1\n      dup2\n      add\n      0x40\n      mstore\n      dup1\n      swap4\n      swap3\n      swap2\n      swap1\n      dup2\n      dup2\n      mstore\n      0x20\n      add\n      dup4\n      dup4\n      0x20\n      mul\n        /* \"--CODEGEN--\":30:33   */\n      dup1\n        /* \"--CODEGEN--\":22:28   */\n      dup3\n        /* \"--CODEGEN--\":14:20   */\n      dup5\n        /* \"--CODEGEN--\":1:34   */\n      calldatacopy\n        /* \"--CODEGEN--\":99:100   */\n      0x00\n        /* \"--CODEGEN--\":93:96   */\n      dup2\n        /* \"--CODEGEN--\":85:91   */\n      dup5\n        /* \"--CODEGEN--\":81:97   */\n      add\n        /* \"--CODEGEN--\":74:101   */\n      mstore\n        /* \"--CODEGEN--\":137:141   */\n      0x1f\n        /* \"--CODEGEN--\":133:142   */\n      not\n        /* \"--CODEGEN--\":126:130   */\n      0x1f\n        /* \"--CODEGEN--\":121:124   */\n      dup3\n        /* \"--CODEGEN--\":117:131   */\n      add\n        /* \"--CODEGEN--\":113:143   */\n      and\n        /* \"--CODEGEN--\":106:143   */\n      swap1\n      pop\n        /* \"--CODEGEN--\":169:172   */\n      dup1\n        /* \"--CODEGEN--\":161:167   */\n      dup4\n        /* \"--CODEGEN--\":157:173   */\n      add\n        /* \"--CODEGEN--\":147:173   */\n      swap3\n      pop\n        /* \"contracts/checkpointoracle/contract/oracle.sol\":1605:4344  function SetCheckpoint(... */\n      pop\n      pop\n      pop\n      pop\n      pop\n      pop\n      swap2\n      swap3\n      swap2\n      swap3\n      swap1\n      dup1\n      calldataload\n      swap1\n      0x20\n      add\n      swap1\n        /* \"--CODEGEN--\":21:32   */\n      0x0100000000\n        /* \"--CODEGEN--\":8:19   */\n      dup2\n        /* \"--CODEGEN--\":5:33   */\n      gt\n        /* \"--CODEGEN--\":2:4   */\n      iszero\n      tag_18\n      jumpi\n        /* \"--CODEGEN--\":46:47   */\n      0x00\n        /* \"--CODEGEN--\":43:44   */\n      dup1\n        /* \"--CODEGEN--\":36:48   */\n      revert\n        /* \"--CODEGEN--\":2:4   */\n    tag_18:\n        /* \"contracts/checkpointoracle/contract/oracle.sol\":1605:4344  function SetCheckpoint(... */\n      dup3\n      add\n        /* \"--CODEGEN--\":35:44   */\n      dup4\n        /* \"--CODEGEN--\":28:32   */\n      0x20\n        /* \"--CODEGEN--\":12:26   */\n      dup3\n        /* \"--CODEGEN--\":8:33   */\n      add\n        /* \"--CODEGEN--\":5:45   */\n      gt\n        /* \"--CODEGEN--\":2:4   */\n      iszero\n      tag_19\n      jumpi\n        /* \"--CODEGEN--\":58:59   */\n      0x00\n        /* \"--CODEGEN--\":55:56   */\n      dup1\n        /* \"--CODEGEN--\":48:60   */\n      revert\n        /* \"--CODEGEN--\":2:4   */\n    tag_19:\n        /* \"contracts/checkpointoracle/contract/oracle.sol\":1605:4344  function SetCheckpoint(... */\n      dup1\n      calldataload\n      swap1\n      0x20\n      add\n      swap2\n        /* \"--CODEGEN--\":101:110   */\n      dup5\n        /* \"--CODEGEN--\":95:97   */\n      0x20\n        /* \"--CODEGEN--\":81:93   */\n      dup4\n        /* \"--CODEGEN--\":77:98   */\n      mul\n        /* \"--CODEGEN--\":67:75   */\n      dup5\n        /* \"--CODEGEN--\":63:99   */\n      add\n        /* \"--CODEGEN--\":60:111   */\n      gt\n        /* \"--CODEGEN--\":39:50   */\n      0x0100000000\n        /* \"--CODEGEN--\":25:37   */\n      dup4\n        /* \"--CODEGEN--\":22:51   */\n      gt\n        /* \"--CODEGEN--\":11:119   */\n      or\n        /* \"--CODEGEN--\":8:10   */\n      iszero\n      tag_20\n      jumpi\n        /* \"--CODEGEN--\":132:133   */\n      0x00\n        /* \"--CODEGEN--\":129:130   */\n      dup1\n        /* \"--CODEGEN--\":122:134   */\n      revert\n        /* \"--CODEGEN--\":8:10   */\n    tag_20:\n        /* \"contracts/checkpointoracle/contract/oracle.sol\":1605:4344  function SetCheckpoint(... */\n      swap2\n      swap1\n      dup1\n      dup1\n      0x20\n      mul\n      0x20\n      add\n      mload(0x40)\n      swap1\n      dup2\n      add\n      0x40\n      mstore\n      dup1\n      swap4\n      swap3\n      swap2\n      swap1\n      dup2\n      dup2\n      mstore\n      0x20\n      add\n      dup4\n      dup4\n      0x20\n      mul\n        /* \"--CODEGEN--\":30:33   */\n      dup1\n        /* \"--CODEGEN--\":22:28   */\n      dup3\n        /* \"--CODEGEN--\":14:20   */\n      dup5\n        /* \"--CODEGEN--\":1:34   */\n      calldatacopy\n        /* \"--CODEGEN--\":99:100   */\n      0x00\n        /* \"--CODEGEN--\":93:96   */\n      dup2\n        /* \"--CODEGEN--\":85:91   */\n      dup5\n        /* \"--CODEGEN--\":81:97   */\n      add\n        /* \"--CODEGEN--\":74:101   */\n      mstore\n        /* \"--CODEGEN--\":137:141   */\n      0x1f\n        /* \"--CODEGEN--\":133:142   */\n      not\n        /* \"--CODEGEN--\":126:130   */\n      0x1f\n        /* \"--CODEGEN--\":121:124   */\n      dup3\n        /* \"--CODEGEN--\":117:131   */\n      add\n        /* \"--CODEGEN--\":113:143   */\n      and\n        /* \"--CODEGEN--\":106:143   */\n      swap1\n      pop\n        /* \"--CODEGEN--\":169:172   */\n      dup1\n        /* \"--CODEGEN--\":161:167   */\n      dup4\n        /* \"--CODEGEN--\":157:173   */\n      add\n        /* \"--CODEGEN--\":147:173   */\n      swap3\n      pop\n        /* \"contracts/checkpointoracle/contract/oracle.sol\":1605:4344  function SetCheckpoint(... */\n      pop\n      pop\n      pop\n      pop\n      pop\n      pop\n      swap2\n      swap3\n      swap2\n      swap3\n      swap1\n      dup1\n      calldataload\n      swap1\n      0x20\n      add\n      swap1\n        /* \"--CODEGEN--\":21:32   */\n      0x0100000000\n        /* \"--CODEGEN--\":8:19   */\n      dup2\n        /* \"--CODEGEN--\":5:33   */\n      gt\n        /* \"--CODEGEN--\":2:4   */\n      iszero\n      tag_21\n      jumpi\n        /* \"--CODEGEN--\":46:47   */\n      0x00\n        /* \"--CODEGEN--\":43:44   */\n      dup1\n        /* \"--CODEGEN--\":36:48   */\n      revert\n        /* \"--CODEGEN--\":2:4   */\n    tag_21:\n        /* \"contracts/checkpointoracle/contract/oracle.sol\":1605:4344  function SetCheckpoint(... */\n      dup3\n      add\n        /* \"--CODEGEN--\":35:44   */\n      dup4\n        /* \"--CODEGEN--\":28:32   */\n      0x20\n        /* \"--CODEGEN--\":12:26   */\n      dup3\n        /* \"--CODEGEN--\":8:33   */\n      add\n        /* \"--CODEGEN--\":5:45   */\n      gt\n        /* \"--CODEGEN--\":2:4   */\n      iszero\n      tag_22\n      jumpi\n        /* \"--CODEGEN--\":58:59   */\n      0x00\n        /* \"--CODEGEN--\":55:56   */\n      dup1\n        /* \"--CODEGEN--\":48:60   */\n      revert\n        /* \"--CODEGEN--\":2:4   */\n    tag_22:\n        /* \"contracts/checkpointoracle/contract/oracle.sol\":1605:4344  function SetCheckpoint(... */\n      dup1\n      calldataload\n      swap1\n      0x20\n      add\n      swap2\n        /* \"--CODEGEN--\":101:110   */\n      dup5\n        /* \"--CODEGEN--\":95:97   */\n      0x20\n        /* \"--CODEGEN--\":81:93   */\n      dup4\n        /* \"--CODEGEN--\":77:98   */\n      mul\n        /* \"--CODEGEN--\":67:75   */\n      dup5\n        /* \"--CODEGEN--\":63:99   */\n      add\n        /* \"--CODEGEN--\":60:111   */\n      gt\n        /* \"--CODEGEN--\":39:50   */\n      0x0100000000\n        /* \"--CODEGEN--\":25:37   */\n      dup4\n        /* \"--CODEGEN--\":22:51   */\n      gt\n        /* \"--CODEGEN--\":11:119   */\n      or\n        /* \"--CODEGEN--\":8:10   */\n      iszero\n      tag_23\n      jumpi\n        /* \"--CODEGEN--\":132:133   */\n      0x00\n        /* \"--CODEGEN--\":129:130   */\n      dup1\n        /* \"--CODEGEN--\":122:134   */\n      revert\n        /* \"--CODEGEN--\":8:10   */\n    tag_23:\n        /* \"contracts/checkpointoracle/contract/oracle.sol\":1605:4344  function SetCheckpoint(... */\n      swap2\n      swap1\n      dup1\n      dup1\n      0x20\n      mul\n      0x20\n      add\n      mload(0x40)\n      swap1\n      dup2\n      add\n      0x40\n      mstore\n      dup1\n      swap4\n      swap3\n      swap2\n      swap1\n      dup2\n      dup2\n      mstore\n      0x20\n      add\n      dup4\n      dup4\n      0x20\n      mul\n        /* \"--CODEGEN--\":30:33   */\n      dup1\n        /* \"--CODEGEN--\":22:28   */\n      dup3\n        /* \"--CODEGEN--\":14:20   */\n      dup5\n        /* \"--CODEGEN--\":1:34   */\n      calldatacopy\n        /* \"--CODEGEN--\":99:100   */\n      0x00\n        /* \"--CODEGEN--\":93:96   */\n      dup2\n        /* \"--CODEGEN--\":85:91   */\n      dup5\n        /* \"--CODEGEN--\":81:97   */\n      add\n        /* \"--CODEGEN--\":74:101   */\n      mstore\n        /* \"--CODEGEN--\":137:141   */\n      0x1f\n        /* \"--CODEGEN--\":133:142   */\n      not\n        /* \"--CODEGEN--\":126:130   */\n      0x1f\n        /* \"--CODEGEN--\":121:124   */\n      dup3\n        /* \"--CODEGEN--\":117:131   */\n      add\n        /* \"--CODEGEN--\":113:143   */\n      and\n        /* \"--CODEGEN--\":106:143   */\n      swap1\n      pop\n        /* \"--CODEGEN--\":169:172   */\n      dup1\n        /* \"--CODEGEN--\":161:167   */\n      dup4\n        /* \"--CODEGEN--\":157:173   */\n      add\n        /* \"--CODEGEN--\":147:173   */\n      swap3\n      pop\n        /* \"contracts/checkpointoracle/contract/oracle.sol\":1605:4344  function SetCheckpoint(... */\n      pop\n      pop\n      pop\n      pop\n      pop\n      pop\n      swap2\n      swap3\n      swap2\n      swap3\n      swap1\n      pop\n      pop\n      pop\n      tag_24\n      jump\t// in\n    tag_13:\n      mload(0x40)\n      dup1\n      dup3\n      iszero\n      iszero\n      iszero\n      iszero\n      dup2\n      mstore\n      0x20\n      add\n      swap2\n      pop\n      pop\n      mload(0x40)\n      dup1\n      swap2\n      sub\n      swap1\n      return\n        /* \"contracts/checkpointoracle/contract/oracle.sol\":4430:4697  function GetAllAdmin()... */\n    tag_7:\n        /* \"contracts/checkpointoracle/contract/oracle.sol\":4485:4501  address[] memory */\n      0x60\n        /* \"contracts/checkpointoracle/contract/oracle.sol\":4517:4537  address[] memory ret */\n      dup1\n        /* \"contracts/checkpointoracle/contract/oracle.sol\":4554:4563  adminList */\n      0x01\n        /* \"contracts/checkpointoracle/contract/oracle.sol\":4554:4570  adminList.length */\n      dup1\n      sload\n      swap1\n      pop\n        /* \"contracts/checkpointoracle/contract/oracle.sol\":4540:4571  new address[](adminList.length) */\n      mload(0x40)\n      swap1\n      dup1\n      dup3\n      mstore\n      dup1\n      0x20\n      mul\n      0x20\n      add\n      dup3\n      add\n      0x40\n      mstore\n      dup1\n      iszero\n      tag_26\n      jumpi\n      dup2\n      0x20\n      add\n        /* \"--CODEGEN--\":29:31   */\n      0x20\n        /* \"--CODEGEN--\":21:27   */\n      dup3\n        /* \"--CODEGEN--\":17:32   */\n      mul\n        /* \"--CODEGEN--\":117:121   */\n      dup1\n        /* \"--CODEGEN--\":105:115   */\n      codesize\n        /* \"--CODEGEN--\":97:103   */\n      dup4\n        /* \"--CODEGEN--\":88:122   */\n      codecopy\n        /* \"--CODEGEN--\":148:152   */\n      dup1\n        /* \"--CODEGEN--\":140:146   */\n      dup3\n        /* \"--CODEGEN--\":136:153   */\n      add\n        /* \"--CODEGEN--\":126:153   */\n      swap2\n      pop\n        /* \"--CODEGEN--\":0:157   */\n      pop\n        /* \"contracts/checkpointoracle/contract/oracle.sol\":4540:4571  new address[](adminList.length) */\n      swap1\n      pop\n    tag_26:\n      pop\n        /* \"contracts/checkpointoracle/contract/oracle.sol\":4517:4571  address[] memory ret = new address[](adminList.length) */\n      swap1\n      pop\n        /* \"contracts/checkpointoracle/contract/oracle.sol\":4586:4592  uint i */\n      0x00\n        /* \"contracts/checkpointoracle/contract/oracle.sol\":4595:4596  0 */\n      dup1\n        /* \"contracts/checkpointoracle/contract/oracle.sol\":4586:4596  uint i = 0 */\n      swap1\n      pop\n        /* \"contracts/checkpointoracle/contract/oracle.sol\":4581:4671  for (uint i = 0; i < adminList.length; i++) {... */\n    tag_27:\n        /* \"contracts/checkpointoracle/contract/oracle.sol\":4602:4611  adminList */\n      0x01\n        /* \"contracts/checkpointoracle/contract/oracle.sol\":4602:4618  adminList.length */\n      dup1\n      sload\n      swap1\n      pop\n        /* \"contracts/checkpointoracle/contract/oracle.sol\":4598:4599  i */\n      dup2\n        /* \"contracts/checkpointoracle/contract/oracle.sol\":4598:4618  i < adminList.length */\n      lt\n        /* \"contracts/checkpointoracle/contract/oracle.sol\":4581:4671  for (uint i = 0; i < adminList.length; i++) {... */\n      iszero\n      tag_28\n      jumpi\n        /* \"contracts/checkpointoracle/contract/oracle.sol\":4648:4657  adminList */\n      0x01\n        /* \"contracts/checkpointoracle/contract/oracle.sol\":4658:4659  i */\n      dup2\n        /* \"contracts/checkpointoracle/contract/oracle.sol\":4648:4660  adminList[i] */\n      dup2\n      sload\n      dup2\n      lt\n      tag_30\n      jumpi\n      invalid\n    tag_30:\n      swap1\n      0x00\n      mstore\n      keccak256(0x00, 0x20)\n      add\n      0x00\n      swap1\n      sload\n      swap1\n      0x0100\n      exp\n      swap1\n      div\n      0xffffffffffffffffffffffffffffffffffffffff\n      and\n        /* \"contracts/checkpointoracle/contract/oracle.sol\":4639:4642  ret */\n      dup3\n        /* \"contracts/checkpointoracle/contract/oracle.sol\":4643:4644  i */\n      dup3\n        /* \"contracts/checkpointoracle/contract/oracle.sol\":4639:4645  ret[i] */\n      dup2\n      mload\n      dup2\n      lt\n      tag_32\n      jumpi\n      invalid\n    tag_32:\n      0x20\n      mul\n      0x20\n      add\n      add\n        /* \"contracts/checkpointoracle/contract/oracle.sol\":4639:4660  ret[i] = adminList[i] */\n      swap1\n      0xffffffffffffffffffffffffffffffffffffffff\n      and\n      swap1\n      dup2\n      0xffffffffffffffffffffffffffffffffffffffff\n      and\n      dup2\n      mstore\n      pop\n      pop\n        /* \"contracts/checkpointoracle/contract/oracle.sol\":4620:4623  i++ */\n      dup1\n      dup1\n      0x01\n      add\n      swap2\n      pop\n      pop\n        /* \"contracts/checkpointoracle/contract/oracle.sol\":4581:4671  for (uint i = 0; i < adminList.length; i++) {... */\n      jump(tag_27)\n    tag_28:\n      pop\n        /* \"contracts/checkpointoracle/contract/oracle.sol\":4687:4690  ret */\n      dup1\n        /* \"contracts/checkpointoracle/contract/oracle.sol\":4680:4690  return ret */\n      swap2\n      pop\n      pop\n        /* \"contracts/checkpointoracle/contract/oracle.sol\":4430:4697  function GetAllAdmin()... */\n      swap1\n      jump\t// out\n        /* \"contracts/checkpointoracle/contract/oracle.sol\":1070:1208  function GetLatestCheckpoint()... */\n    tag_12:\n        /* \"contracts/checkpointoracle/contract/oracle.sol\":1133:1139  uint64 */\n      0x00\n        /* \"contracts/checkpointoracle/contract/oracle.sol\":1141:1148  bytes32 */\n      dup1\n        /* \"contracts/checkpointoracle/contract/oracle.sol\":1150:1154  uint */\n      0x00\n        /* \"contracts/checkpointoracle/contract/oracle.sol\":1174:1186  sectionIndex */\n      0x02\n      0x00\n      swap1\n      sload\n      swap1\n      0x0100\n      exp\n      swap1\n      div\n      0xffffffffffffffff\n      and\n        /* \"contracts/checkpointoracle/contract/oracle.sol\":1188:1192  hash */\n      sload(0x04)\n        /* \"contracts/checkpointoracle/contract/oracle.sol\":1194:1200  height */\n      sload(0x03)\n        /* \"contracts/checkpointoracle/contract/oracle.sol\":1166:1201  return (sectionIndex, hash, height) */\n      swap3\n      pop\n      swap3\n      pop\n      swap3\n      pop\n        /* \"contracts/checkpointoracle/contract/oracle.sol\":1070:1208  function GetLatestCheckpoint()... */\n      swap1\n      swap2\n      swap3\n      jump\t// out\n        /* \"contracts/checkpointoracle/contract/oracle.sol\":1605:4344  function SetCheckpoint(... */\n    tag_24:\n        /* \"contracts/checkpointoracle/contract/oracle.sol\":1853:1857  bool */\n      0x00\n        /* \"contracts/checkpointoracle/contract/oracle.sol\":1925:1931  admins */\n      dup1\n        /* \"contracts/checkpointoracle/contract/oracle.sol\":1925:1943  admins[msg.sender] */\n      0x00\n        /* \"contracts/checkpointoracle/contract/oracle.sol\":1932:1942  msg.sender */\n      caller\n        /* \"contracts/checkpointoracle/contract/oracle.sol\":1925:1943  admins[msg.sender] */\n      0xffffffffffffffffffffffffffffffffffffffff\n      and\n      0xffffffffffffffffffffffffffffffffffffffff\n      and\n      dup2\n      mstore\n      0x20\n      add\n      swap1\n      dup2\n      mstore\n      0x20\n      add\n      0x00\n      keccak256\n      0x00\n      swap1\n      sload\n      swap1\n      0x0100\n      exp\n      swap1\n      div\n      0xff\n      and\n        /* \"contracts/checkpointoracle/contract/oracle.sol\":1917:1944  require(admins[msg.sender]) */\n      tag_35\n      jumpi\n      0x00\n      dup1\n      revert\n    tag_35:\n        /* \"contracts/checkpointoracle/contract/oracle.sol\":2110:2121  _recentHash */\n      dup7\n        /* \"contracts/checkpointoracle/contract/oracle.sol\":2092:2105  _recentNumber */\n      dup9\n        /* \"contracts/checkpointoracle/contract/oracle.sol\":2082:2106  blockhash(_recentNumber) */\n      blockhash\n        /* \"contracts/checkpointoracle/contract/oracle.sol\":2082:2121  blockhash(_recentNumber) == _recentHash */\n      eq\n        /* \"contracts/checkpointoracle/contract/oracle.sol\":2074:2122  require(blockhash(_recentNumber) == _recentHash) */\n      tag_36\n      jumpi\n      0x00\n      dup1\n      revert\n    tag_36:\n        /* \"contracts/checkpointoracle/contract/oracle.sol\":2206:2207  r */\n      dup3\n        /* \"contracts/checkpointoracle/contract/oracle.sol\":2206:2214  r.length */\n      mload\n        /* \"contracts/checkpointoracle/contract/oracle.sol\":2194:2195  v */\n      dup5\n        /* \"contracts/checkpointoracle/contract/oracle.sol\":2194:2202  v.length */\n      mload\n        /* \"contracts/checkpointoracle/contract/oracle.sol\":2194:2214  v.length == r.length */\n      eq\n        /* \"contracts/checkpointoracle/contract/oracle.sol\":2186:2215  require(v.length == r.length) */\n      tag_37\n      jumpi\n      0x00\n      dup1\n      revert\n    tag_37:\n        /* \"contracts/checkpointoracle/contract/oracle.sol\":2245:2246  s */\n      dup2\n        /* \"contracts/checkpointoracle/contract/oracle.sol\":2245:2253  s.length */\n      mload\n        /* \"contracts/checkpointoracle/contract/oracle.sol\":2233:2234  v */\n      dup5\n        /* \"contracts/checkpointoracle/contract/oracle.sol\":2233:2241  v.length */\n      mload\n        /* \"contracts/checkpointoracle/contract/oracle.sol\":2233:2253  v.length == s.length */\n      eq\n        /* \"contracts/checkpointoracle/contract/oracle.sol\":2225:2254  require(v.length == s.length) */\n      tag_38\n      jumpi\n      0x00\n      dup1\n      revert\n    tag_38:\n        /* \"contracts/checkpointoracle/contract/oracle.sol\":2357:2372  processConfirms */\n      sload(0x06)\n        /* \"contracts/checkpointoracle/contract/oracle.sol\":2345:2356  sectionSize */\n      sload(0x05)\n        /* \"contracts/checkpointoracle/contract/oracle.sol\":2342:2343  1 */\n      0x01\n        /* \"contracts/checkpointoracle/contract/oracle.sol\":2328:2341  _sectionIndex */\n      dup8\n        /* \"contracts/checkpointoracle/contract/oracle.sol\":2328:2343  _sectionIndex+1 */\n      add\n        /* \"contracts/checkpointoracle/contract/oracle.sol\":2327:2356  (_sectionIndex+1)*sectionSize */\n      0xffffffffffffffff\n      and\n      mul\n        /* \"contracts/checkpointoracle/contract/oracle.sol\":2327:2372  (_sectionIndex+1)*sectionSize+processConfirms */\n      add\n        /* \"contracts/checkpointoracle/contract/oracle.sol\":2312:2324  block.number */\n      number\n        /* \"contracts/checkpointoracle/contract/oracle.sol\":2312:2372  block.number < (_sectionIndex+1)*sectionSize+processConfirms */\n      lt\n        /* \"contracts/checkpointoracle/contract/oracle.sol\":2308:2411  if (block.number < (_sectionIndex+1)*sectionSize+processConfirms) {... */\n      iszero\n      tag_39\n      jumpi\n        /* \"contracts/checkpointoracle/contract/oracle.sol\":2395:2400  false */\n      0x00\n        /* \"contracts/checkpointoracle/contract/oracle.sol\":2388:2400  return false */\n      swap1\n      pop\n      jump(tag_34)\n        /* \"contracts/checkpointoracle/contract/oracle.sol\":2308:2411  if (block.number < (_sectionIndex+1)*sectionSize+processConfirms) {... */\n    tag_39:\n        /* \"contracts/checkpointoracle/contract/oracle.sol\":2481:2493  sectionIndex */\n      0x02\n      0x00\n      swap1\n      sload\n      swap1\n      0x0100\n      exp\n      swap1\n      div\n      0xffffffffffffffff\n      and\n        /* \"contracts/checkpointoracle/contract/oracle.sol\":2465:2493  _sectionIndex < sectionIndex */\n      0xffffffffffffffff\n      and\n        /* \"contracts/checkpointoracle/contract/oracle.sol\":2465:2478  _sectionIndex */\n      dup6\n        /* \"contracts/checkpointoracle/contract/oracle.sol\":2465:2493  _sectionIndex < sectionIndex */\n      0xffffffffffffffff\n      and\n      lt\n        /* \"contracts/checkpointoracle/contract/oracle.sol\":2461:2532  if (_sectionIndex < sectionIndex) {... */\n      iszero\n      tag_40\n      jumpi\n        /* \"contracts/checkpointoracle/contract/oracle.sol\":2516:2521  false */\n      0x00\n        /* \"contracts/checkpointoracle/contract/oracle.sol\":2509:2521  return false */\n      swap1\n      pop\n      jump(tag_34)\n        /* \"contracts/checkpointoracle/contract/oracle.sol\":2461:2532  if (_sectionIndex < sectionIndex) {... */\n    tag_40:\n        /* \"contracts/checkpointoracle/contract/oracle.sol\":2605:2617  sectionIndex */\n      0x02\n      0x00\n      swap1\n      sload\n      swap1\n      0x0100\n      exp\n      swap1\n      div\n      0xffffffffffffffff\n      and\n        /* \"contracts/checkpointoracle/contract/oracle.sol\":2588:2617  _sectionIndex == sectionIndex */\n      0xffffffffffffffff\n      and\n        /* \"contracts/checkpointoracle/contract/oracle.sol\":2588:2601  _sectionIndex */\n      dup6\n        /* \"contracts/checkpointoracle/contract/oracle.sol\":2588:2617  _sectionIndex == sectionIndex */\n      0xffffffffffffffff\n      and\n      eq\n        /* \"contracts/checkpointoracle/contract/oracle.sol\":2588:2656  _sectionIndex == sectionIndex && (_sectionIndex != 0 || height != 0) */\n      dup1\n      iszero\n      tag_41\n      jumpi\n      pop\n        /* \"contracts/checkpointoracle/contract/oracle.sol\":2639:2640  0 */\n      0x00\n        /* \"contracts/checkpointoracle/contract/oracle.sol\":2622:2635  _sectionIndex */\n      dup6\n        /* \"contracts/checkpointoracle/contract/oracle.sol\":2622:2640  _sectionIndex != 0 */\n      0xffffffffffffffff\n      and\n      eq\n      iszero\n        /* \"contracts/checkpointoracle/contract/oracle.sol\":2622:2655  _sectionIndex != 0 || height != 0 */\n      dup1\n      tag_42\n      jumpi\n      pop\n        /* \"contracts/checkpointoracle/contract/oracle.sol\":2654:2655  0 */\n      0x00\n        /* \"contracts/checkpointoracle/contract/oracle.sol\":2644:2650  height */\n      sload(0x03)\n        /* \"contracts/checkpointoracle/contract/oracle.sol\":2644:2655  height != 0 */\n      eq\n      iszero\n        /* \"contracts/checkpointoracle/contract/oracle.sol\":2622:2655  _sectionIndex != 0 || height != 0 */\n    tag_42:\n        /* \"contracts/checkpointoracle/contract/oracle.sol\":2588:2656  _sectionIndex == sectionIndex && (_sectionIndex != 0 || height != 0) */\n    tag_41:\n        /* \"contracts/checkpointoracle/contract/oracle.sol\":2584:2695  if (_sectionIndex == sectionIndex && (_sectionIndex != 0 || height != 0)) {... */\n      iszero\n      tag_43\n      jumpi\n        /* \"contracts/checkpointoracle/contract/oracle.sol\":2679:2684  false */\n      0x00\n        /* \"contracts/checkpointoracle/contract/oracle.sol\":2672:2684  return false */\n      swap1\n      pop\n      jump(tag_34)\n        /* \"contracts/checkpointoracle/contract/oracle.sol\":2584:2695  if (_sectionIndex == sectionIndex && (_sectionIndex != 0 || height != 0)) {... */\n    tag_43:\n        /* \"contracts/checkpointoracle/contract/oracle.sol\":2753:2764  _hash == \"\" */\n      0x00\n        /* \"contracts/checkpointoracle/contract/oracle.sol\":2753:2758  _hash */\n      dup7\n        /* \"contracts/checkpointoracle/contract/oracle.sol\":2753:2764  _hash == \"\" */\n      eq\n        /* \"contracts/checkpointoracle/contract/oracle.sol\":2749:2802  if (_hash == \"\"){... */\n      iszero\n      tag_44\n      jumpi\n        /* \"contracts/checkpointoracle/contract/oracle.sol\":2786:2791  false */\n      0x00\n        /* \"contracts/checkpointoracle/contract/oracle.sol\":2779:2791  return false */\n      swap1\n      pop\n      jump(tag_34)\n        /* \"contracts/checkpointoracle/contract/oracle.sol\":2749:2802  if (_hash == \"\"){... */\n    tag_44:\n        /* \"contracts/checkpointoracle/contract/oracle.sol\":3294:3312  bytes32 signedHash */\n      0x00\n        /* \"contracts/checkpointoracle/contract/oracle.sol\":3347:3351  0x19 */\n      0x19\n        /* \"contracts/checkpointoracle/contract/oracle.sol\":3342:3352  byte(0x19) */\n      0xf8\n      shl\n        /* \"contracts/checkpointoracle/contract/oracle.sol\":3359:3360  0 */\n      0x00\n        /* \"contracts/checkpointoracle/contract/oracle.sol\":3354:3361  byte(0) */\n      0xf8\n      shl\n        /* \"contracts/checkpointoracle/contract/oracle.sol\":3363:3367  this */\n      address\n        /* \"contracts/checkpointoracle/contract/oracle.sol\":3369:3382  _sectionIndex */\n      dup9\n        /* \"contracts/checkpointoracle/contract/oracle.sol\":3384:3389  _hash */\n      dup11\n        /* \"contracts/checkpointoracle/contract/oracle.sol\":3325:3390  abi.encodePacked(byte(0x19), byte(0), this, _sectionIndex, _hash) */\n      add(0x20, mload(0x40))\n      dup1\n      dup7\n      not(0xffffffffffffffffffffffffffffffffffffffffffffffffffffffffffffff)\n      and\n      not(0xffffffffffffffffffffffffffffffffffffffffffffffffffffffffffffff)\n      and\n      dup2\n      mstore\n      0x01\n      add\n      dup6\n      not(0xffffffffffffffffffffffffffffffffffffffffffffffffffffffffffffff)\n      and\n      not(0xffffffffffffffffffffffffffffffffffffffffffffffffffffffffffffff)\n      and\n      dup2\n      mstore\n      0x01\n      add\n      dup5\n      0xffffffffffffffffffffffffffffffffffffffff\n      and\n      0xffffffffffffffffffffffffffffffffffffffff\n      and\n      0x60\n      shl\n      dup2\n      mstore\n      0x14\n      add\n      dup4\n      0xffffffffffffffff\n      and\n      0xffffffffffffffff\n      and\n      0xc0\n      shl\n      dup2\n      mstore\n      0x08\n      add\n      dup3\n      dup2\n      mstore\n      0x20\n      add\n      swap6\n      pop\n      pop\n      pop\n      pop\n      pop\n      pop\n      mload(0x40)\n        /* \"--CODEGEN--\":49:53   */\n      0x20\n        /* \"--CODEGEN--\":39:46   */\n      dup2\n        /* \"--CODEGEN--\":30:37   */\n      dup4\n        /* \"--CODEGEN--\":26:47   */\n      sub\n        /* \"--CODEGEN--\":22:54   */\n      sub\n        /* \"--CODEGEN--\":13:20   */\n      dup2\n        /* \"--CODEGEN--\":6:55   */\n      mstore\n        /* \"contracts/checkpointoracle/contract/oracle.sol\":3325:3390  abi.encodePacked(byte(0x19), byte(0), this, _sectionIndex, _hash) */\n      swap1\n      0x40\n      mstore\n        /* \"contracts/checkpointoracle/contract/oracle.sol\":3315:3391  keccak256(abi.encodePacked(byte(0x19), byte(0), this, _sectionIndex, _hash)) */\n      dup1\n      mload\n      swap1\n      0x20\n      add\n      keccak256\n        /* \"contracts/checkpointoracle/contract/oracle.sol\":3294:3391  bytes32 signedHash = keccak256(abi.encodePacked(byte(0x19), byte(0), this, _sectionIndex, _hash)) */\n      swap1\n      pop\n        /* \"contracts/checkpointoracle/contract/oracle.sol\":3402:3419  address lastVoter */\n      0x00\n        /* \"contracts/checkpointoracle/contract/oracle.sol\":3430:3431  0 */\n      dup1\n        /* \"contracts/checkpointoracle/contract/oracle.sol\":3402:3432  address lastVoter = address(0) */\n      swap1\n      pop\n        /* \"contracts/checkpointoracle/contract/oracle.sol\":3651:3659  uint idx */\n      0x00\n        /* \"contracts/checkpointoracle/contract/oracle.sol\":3662:3663  0 */\n      dup1\n        /* \"contracts/checkpointoracle/contract/oracle.sol\":3651:3663  uint idx = 0 */\n      swap1\n      pop\n        /* \"contracts/checkpointoracle/contract/oracle.sol\":3646:4252  for (uint idx = 0; idx < v.length; idx++){... */\n    tag_45:\n        /* \"contracts/checkpointoracle/contract/oracle.sol\":3671:3672  v */\n      dup7\n        /* \"contracts/checkpointoracle/contract/oracle.sol\":3671:3679  v.length */\n      mload\n        /* \"contracts/checkpointoracle/contract/oracle.sol\":3665:3668  idx */\n      dup2\n        /* \"contracts/checkpointoracle/contract/oracle.sol\":3665:3679  idx < v.length */\n      lt\n        /* \"contracts/checkpointoracle/contract/oracle.sol\":3646:4252  for (uint idx = 0; idx < v.length; idx++){... */\n      iszero\n      tag_46\n      jumpi\n        /* \"contracts/checkpointoracle/contract/oracle.sol\":3701:3715  address signer */\n      0x00\n        /* \"contracts/checkpointoracle/contract/oracle.sol\":3718:3763  ecrecover(signedHash, v[idx], r[idx], s[idx]) */\n      0x01\n        /* \"contracts/checkpointoracle/contract/oracle.sol\":3728:3738  signedHash */\n      dup5\n        /* \"contracts/checkpointoracle/contract/oracle.sol\":3740:3741  v */\n      dup10\n        /* \"contracts/checkpointoracle/contract/oracle.sol\":3742:3745  idx */\n      dup5\n        /* \"contracts/checkpointoracle/contract/oracle.sol\":3740:3746  v[idx] */\n      dup2\n      mload\n      dup2\n      lt\n      tag_48\n      jumpi\n      invalid\n    tag_48:\n      0x20\n      mul\n      0x20\n      add\n      add\n      mload\n        /* \"contracts/checkpointoracle/contract/oracle.sol\":3748:3749  r */\n      dup10\n        /* \"contracts/checkpointoracle/contract/oracle.sol\":3750:3753  idx */\n      dup6\n        /* \"contracts/checkpointoracle/contract/oracle.sol\":3748:3754  r[idx] */\n      dup2\n      mload\n      dup2\n      lt\n      tag_49\n      jumpi\n      invalid\n    tag_49:\n      0x20\n      mul\n      0x20\n      add\n      add\n      mload\n        /* \"contracts/checkpointoracle/contract/oracle.sol\":3756:3757  s */\n      dup10\n        /* \"contracts/checkpointoracle/contract/oracle.sol\":3758:3761  idx */\n      dup7\n        /* \"contracts/checkpointoracle/contract/oracle.sol\":3756:3762  s[idx] */\n      dup2\n      mload\n      dup2\n      lt\n      tag_50\n      jumpi\n      invalid\n    tag_50:\n      0x20\n      mul\n      0x20\n      add\n      add\n      mload\n        /* \"contracts/checkpointoracle/contract/oracle.sol\":3718:3763  ecrecover(signedHash, v[idx], r[idx], s[idx]) */\n      mload(0x40)\n      0x00\n      dup2\n      mstore\n      0x20\n      add\n      0x40\n      mstore\n      mload(0x40)\n      dup1\n      dup6\n      dup2\n      mstore\n      0x20\n      add\n      dup5\n      0xff\n      and\n      0xff\n      and\n      dup2\n      mstore\n      0x20\n      add\n      dup4\n      dup2\n      mstore\n      0x20\n      add\n      dup3\n      dup2\n      mstore\n      0x20\n      add\n      swap5\n      pop\n      pop\n      pop\n      pop\n      pop\n      0x20\n      mload(0x40)\n      0x20\n      dup2\n      sub\n      swap1\n      dup1\n      dup5\n      sub\n      swap1\n      dup6\n      gas\n      staticcall\n      iszero\n        /* \"--CODEGEN--\":8:17   */\n      dup1\n        /* \"--CODEGEN--\":5:7   */\n      iszero\n      tag_52\n      jumpi\n        /* \"--CODEGEN--\":45:61   */\n      returndatasize\n        /* \"--CODEGEN--\":42:43   */\n      0x00\n        /* \"--CODEGEN--\":39:40   */\n      dup1\n        /* \"--CODEGEN--\":24:62   */\n      returndatacopy\n        /* \"--CODEGEN--\":77:93   */\n      returndatasize\n        /* \"--CODEGEN--\":74:75   */\n      0x00\n        /* \"--CODEGEN--\":67:94   */\n      revert\n        /* \"--CODEGEN--\":5:7   */\n    tag_52:\n        /* \"contracts/checkpointoracle/contract/oracle.sol\":3718:3763  ecrecover(signedHash, v[idx], r[idx], s[idx]) */\n      pop\n      pop\n      pop\n      mload(sub(mload(0x40), 0x20))\n        /* \"contracts/checkpointoracle/contract/oracle.sol\":3701:3763  address signer = ecrecover(signedHash, v[idx], r[idx], s[idx]) */\n      swap1\n      pop\n        /* \"contracts/checkpointoracle/contract/oracle.sol\":3785:3791  admins */\n      0x00\n        /* \"contracts/checkpointoracle/contract/oracle.sol\":3785:3799  admins[signer] */\n      dup1\n        /* \"contracts/checkpointoracle/contract/oracle.sol\":3792:3798  signer */\n      dup3\n        /* \"contracts/checkpointoracle/contract/oracle.sol\":3785:3799  admins[signer] */\n      0xffffffffffffffffffffffffffffffffffffffff\n      and\n      0xffffffffffffffffffffffffffffffffffffffff\n      and\n      dup2\n      mstore\n      0x20\n      add\n      swap1\n      dup2\n      mstore\n      0x20\n      add\n      0x00\n      keccak256\n      0x00\n      swap1\n      sload\n      swap1\n      0x0100\n      exp\n      swap1\n      div\n      0xff\n      and\n        /* \"contracts/checkpointoracle/contract/oracle.sol\":3777:3800  require(admins[signer]) */\n      tag_53\n      jumpi\n      0x00\n      dup1\n      revert\n    tag_53:\n        /* \"contracts/checkpointoracle/contract/oracle.sol\":3848:3857  lastVoter */\n      dup3\n        /* \"contracts/checkpointoracle/contract/oracle.sol\":3840:3858  uint256(lastVoter) */\n      0xffffffffffffffffffffffffffffffffffffffff\n      and\n        /* \"contracts/checkpointoracle/contract/oracle.sol\":3830:3836  signer */\n      dup2\n        /* \"contracts/checkpointoracle/contract/oracle.sol\":3822:3837  uint256(signer) */\n      0xffffffffffffffffffffffffffffffffffffffff\n      and\n        /* \"contracts/checkpointoracle/contract/oracle.sol\":3822:3858  uint256(signer) > uint256(lastVoter) */\n      gt\n        /* \"contracts/checkpointoracle/contract/oracle.sol\":3814:3859  require(uint256(signer) > uint256(lastVoter)) */\n      tag_54\n      jumpi\n      0x00\n      dup1\n      revert\n    tag_54:\n        /* \"contracts/checkpointoracle/contract/oracle.sol\":3885:3891  signer */\n      dup1\n        /* \"contracts/checkpointoracle/contract/oracle.sol\":3873:3891  lastVoter = signer */\n      swap3\n      pop\n        /* \"contracts/checkpointoracle/contract/oracle.sol\":3928:3941  _sectionIndex */\n      dup9\n        /* \"contracts/checkpointoracle/contract/oracle.sol\":3910:3973  NewCheckpointVote(_sectionIndex, _hash, v[idx], r[idx], s[idx]) */\n      0xffffffffffffffff\n      and\n      0xce51ffa16246bcaf0899f6504f473cd0114f430f566cef71ab7e03d3dde42a41\n        /* \"contracts/checkpointoracle/contract/oracle.sol\":3943:3948  _hash */\n      dup12\n        /* \"contracts/checkpointoracle/contract/oracle.sol\":3950:3951  v */\n      dup11\n        /* \"contracts/checkpointoracle/contract/oracle.sol\":3952:3955  idx */\n      dup6\n        /* \"contracts/checkpointoracle/contract/oracle.sol\":3950:3956  v[idx] */\n      dup2\n      mload\n      dup2\n      lt\n      tag_55\n      jumpi\n      invalid\n    tag_55:\n      0x20\n      mul\n      0x20\n      add\n      add\n      mload\n        /* \"contracts/checkpointoracle/contract/oracle.sol\":3958:3959  r */\n      dup11\n        /* \"contracts/checkpointoracle/contract/oracle.sol\":3960:3963  idx */\n      dup7\n        /* \"contracts/checkpointoracle/contract/oracle.sol\":3958:3964  r[idx] */\n      dup2\n      mload\n      dup2\n      lt\n      tag_56\n      jumpi\n      invalid\n    tag_56:\n      0x20\n      mul\n      0x20\n      add\n      add\n      mload\n        /* \"contracts/checkpointoracle/contract/oracle.sol\":3966:3967  s */\n      dup11\n        /* \"contracts/checkpointoracle/contract/oracle.sol\":3968:3971  idx */\n      dup8\n        /* \"contracts/checkpointoracle/contract/oracle.sol\":3966:3972  s[idx] */\n      dup2\n      mload\n      dup2\n      lt\n      tag_57\n      jumpi\n      invalid\n    tag_57:\n      0x20\n      mul\n      0x20\n      add\n      add\n      mload\n        /* \"contracts/checkpointoracle/contract/oracle.sol\":3910:3973  NewCheckpointVote(_sectionIndex, _hash, v[idx], r[idx], s[idx]) */\n      mload(0x40)\n      dup1\n      dup6\n      dup2\n      mstore\n      0x20\n      add\n      dup5\n      0xff\n      and\n      0xff\n      and\n      dup2\n      mstore\n      0x20\n      add\n      dup4\n      dup2\n      mstore\n      0x20\n      add\n      dup3\n      dup2\n      mstore\n      0x20\n      add\n      swap5\n      pop\n      pop\n      pop\n      pop\n      pop\n      mload(0x40)\n      dup1\n      swap2\n      sub\n      swap1\n      log2\n        /* \"contracts/checkpointoracle/contract/oracle.sol\":4073:4082  threshold */\n      sload(0x07)\n        /* \"contracts/checkpointoracle/contract/oracle.sol\":4068:4069  1 */\n      0x01\n        /* \"contracts/checkpointoracle/contract/oracle.sol\":4064:4067  idx */\n      dup4\n        /* \"contracts/checkpointoracle/contract/oracle.sol\":4064:4069  idx+1 */\n      add\n        /* \"contracts/checkpointoracle/contract/oracle.sol\":4064:4082  idx+1 >= threshold */\n      lt\n        /* \"contracts/checkpointoracle/contract/oracle.sol\":4060:4242  if (idx+1 >= threshold){... */\n      tag_58\n      jumpi\n        /* \"contracts/checkpointoracle/contract/oracle.sol\":4108:4113  _hash */\n      dup10\n        /* \"contracts/checkpointoracle/contract/oracle.sol\":4101:4105  hash */\n      0x04\n        /* \"contracts/checkpointoracle/contract/oracle.sol\":4101:4113  hash = _hash */\n      dup2\n      swap1\n      sstore\n      pop\n        /* \"contracts/checkpointoracle/contract/oracle.sol\":4140:4152  block.number */\n      number\n        /* \"contracts/checkpointoracle/contract/oracle.sol\":4131:4137  height */\n      0x03\n        /* \"contracts/checkpointoracle/contract/oracle.sol\":4131:4152  height = block.number */\n      dup2\n      swap1\n      sstore\n      pop\n        /* \"contracts/checkpointoracle/contract/oracle.sol\":4185:4198  _sectionIndex */\n      dup9\n        /* \"contracts/checkpointoracle/contract/oracle.sol\":4170:4182  sectionIndex */\n      0x02\n      0x00\n        /* \"contracts/checkpointoracle/contract/oracle.sol\":4170:4198  sectionIndex = _sectionIndex */\n      0x0100\n      exp\n      dup2\n      sload\n      dup2\n      0xffffffffffffffff\n      mul\n      not\n      and\n      swap1\n      dup4\n      0xffffffffffffffff\n      and\n      mul\n      or\n      swap1\n      sstore\n      pop\n        /* \"contracts/checkpointoracle/contract/oracle.sol\":4223:4227  true */\n      0x01\n        /* \"contracts/checkpointoracle/contract/oracle.sol\":4216:4227  return true */\n      swap5\n      pop\n      pop\n      pop\n      pop\n      pop\n      jump(tag_34)\n        /* \"contracts/checkpointoracle/contract/oracle.sol\":4060:4242  if (idx+1 >= threshold){... */\n    tag_58:\n        /* \"contracts/checkpointoracle/contract/oracle.sol\":3646:4252  for (uint idx = 0; idx < v.length; idx++){... */\n      pop\n        /* \"contracts/checkpointoracle/contract/oracle.sol\":3681:3686  idx++ */\n      dup1\n      dup1\n      0x01\n      add\n      swap2\n      pop\n      pop\n        /* \"contracts/checkpointoracle/contract/oracle.sol\":3646:4252  for (uint idx = 0; idx < v.length; idx++){... */\n      jump(tag_45)\n    tag_46:\n      pop\n        /* \"contracts/checkpointoracle/contract/oracle.sol\":4329:4337  revert() */\n      0x00\n      dup1\n      revert\n        /* \"contracts/checkpointoracle/contract/oracle.sol\":1605:4344  function SetCheckpoint(... */\n    tag_34:\n      swap8\n      swap7\n      pop\n      pop\n      pop\n      pop\n      pop\n      pop\n      pop\n      jump\t// out\n\n    auxdata: 0xa2646970667358221220b1ccc61b55b4dd356d6faa9e533047b09b0ccddc8ae1c8b03e5d87ce7b7ee79264736f6c63430006000033\n}\n",
				"bytecode": {
					"linkReferences": {},
					"object": "608060405234801561001057600080fd5b50604051610b26380380610b268339818101604052608081101561003357600080fd5b810190808051604051939291908464010000000082111561005357600080fd5b8382019150602082018581111561006957600080fd5b825186602082028301116401000000008211171561008657600080fd5b8083526020830192505050908051906020019060200280838360005b838110156100bd5780820151818401526020810190506100a2565b5050505090500160405260200180519060200190929190805190602001909291908051906020019092919050505060008090505b84518110156101e757600160008087848151811061010b57fe5b602002602001015173ffffffffffffffffffffffffffffffffffffffff1673ffffffffffffffffffffffffffffffffffffffff16815260200190815260200160002060006101000a81548160ff021916908315150217905550600185828151811061017257fe5b60200260200101519080600181540180825580915050600190039060005260206000200160009091909190916101000a81548173ffffffffffffffffffffffffffffffffffffffff021916908373ffffffffffffffffffffffffffffffffffffffff16021790555080806001019150506100f1565b5082600581905550816006819055508060078190555050505050610916806102106000396000f3fe608060405234801561001057600080fd5b50600436106100415760003560e01c806345848dfc146100465780634d6a304c146100a5578063d459fc46146100e5575b600080fd5b61004e61030f565b6040518080602001828103825283818151815260200191508051906020019060200280838360005b83811015610091578082015181840152602081019050610076565b505050509050019250505060405180910390f35b6100ad6103ef565b604051808467ffffffffffffffff1667ffffffffffffffff168152602001838152602001828152602001935050505060405180910390f35b6102f5600480360360e08110156100fb57600080fd5b81019080803590602001909291908035906020019092919080359060200190929190803567ffffffffffffffff1690602001909291908035906020019064010000000081111561014a57600080fd5b82018360208201111561015c57600080fd5b8035906020019184602083028401116401000000008311171561017e57600080fd5b919080806020026020016040519081016040528093929190818152602001838360200280828437600081840152601f19601f820116905080830192505050505050509192919290803590602001906401000000008111156101de57600080fd5b8201836020820111156101f057600080fd5b8035906020019184602083028401116401000000008311171561021257600080fd5b919080806020026020016040519081016040528093929190818152602001838360200280828437600081840152601f19601f8201169050808301925050505050505091929192908035906020019064010000000081111561027257600080fd5b82018360208201111561028457600080fd5b803590602001918460208302840111640100000000831117156102a657600080fd5b919080806020026020016040519081016040528093929190818152602001838360200280828437600081840152601f19601f82011690508083019250505050505050919291929050505061041c565b604051808215151515815260200191505060405180910390f35b6060806001805490506040519080825280602002602001820160405280156103465781602001602082028038833980820191505090505b50905060008090505b6001805490508110156103e7576001818154811061036957fe5b9060005260206000200160009054906101000a900473ffffffffffffffffffffffffffffffffffffffff168282815181106103a057fe5b602002602001019073ffffffffffffffffffffffffffffffffffffffff16908173ffffffffffffffffffffffffffffffffffffffff1681525050808060010191505061034f565b508091505090565b6000806000600260009054906101000a900467ffffffffffffffff16600454600354925092509250909192565b60008060003373ffffffffffffffffffffffffffffffffffffffff1673ffffffffffffffffffffffffffffffffffffffff16815260200190815260200160002060009054906101000a900460ff1661047357600080fd5b8688401461048057600080fd5b825184511461048e57600080fd5b815184511461049c57600080fd5b6006546005546001870167ffffffffffffffff1602014310156104c257600090506108d5565b600260009054906101000a900467ffffffffffffffff1667ffffffffffffffff168567ffffffffffffffff1610156104fd57600090506108d5565b600260009054906101000a900467ffffffffffffffff1667ffffffffffffffff168567ffffffffffffffff1614801561054f575060008567ffffffffffffffff1614158061054e5750600060035414155b5b1561055d57600090506108d5565b600086141561056f57600090506108d5565b6000601960f81b600060f81b30888a60405160200180867effffffffffffffffffffffffffffffffffffffffffffffffffffffffffffff19167effffffffffffffffffffffffffffffffffffffffffffffffffffffffffffff19168152600101857effffffffffffffffffffffffffffffffffffffffffffffffffffffffffffff19167effffffffffffffffffffffffffffffffffffffffffffffffffffffffffffff191681526001018473ffffffffffffffffffffffffffffffffffffffff1673ffffffffffffffffffffffffffffffffffffffff1660601b81526014018367ffffffffffffffff1667ffffffffffffffff1660c01b815260080182815260200195505050505050604051602081830303815290604052805190602001209050600080905060008090505b86518110156108cf5760006001848984815181106106b557fe5b60200260200101518985815181106106c957fe5b60200260200101518986815181106106dd57fe5b602002602001015160405160008152602001604052604051808581526020018460ff1660ff1681526020018381526020018281526020019450505050506020604051602081039080840390855afa15801561073c573d6000803e3d6000fd5b5050506020604051035190506000808273ffffffffffffffffffffffffffffffffffffffff1673ffffffffffffffffffffffffffffffffffffffff16815260200190815260200160002060009054906101000a900460ff1661079d57600080fd5b8273ffffffffffffffffffffffffffffffffffffffff168173ffffffffffffffffffffffffffffffffffffffff16116107d557600080fd5b8092508867ffffffffffffffff167fce51ffa16246bcaf0899f6504f473cd0114f430f566cef71ab7e03d3dde42a418b8a858151811061081157fe5b60200260200101518a868151811061082557fe5b60200260200101518a878151811061083957fe5b6020026020010151604051808581526020018460ff1660ff16815260200183815260200182815260200194505050505060405180910390a260075460018301106108c157896004819055504360038190555088600260006101000a81548167ffffffffffffffff021916908367ffffffffffffffff16021790555060019450505050506108d5565b50808060010191505061069b565b50600080fd5b97965050505050505056fea2646970667358221220b1ccc61b55b4dd356d6faa9e533047b09b0ccddc8ae1c8b03e5d87ce7b7ee79264736f6c63430006000033",
					"opcodes": "PUSH1 0x80 PUSH1 0x40 MSTORE CALLVALUE DUP1 ISZERO PUSH2 0x10 JUMPI PUSH1 0x0 DUP1 REVERT JUMPDEST POP PUSH1 0x40 MLOAD PUSH2 0xB26 CODESIZE SUB DUP1 PUSH2 0xB26 DUP4 CODECOPY DUP2 DUP2 ADD PUSH1 0x40 MSTORE PUSH1 0x80 DUP2 LT ISZERO PUSH2 0x33 JUMPI PUSH1 0x0 DUP1 REVERT JUMPDEST DUP2 ADD SWAP1 DUP1 DUP1 MLOAD PUSH1 0x40 MLOAD SWAP4 SWAP3 SWAP2 SWAP1 DUP5 PUSH5 0x100000000 DUP3 GT ISZERO PUSH2 0x53 JUMPI PUSH1 0x0 DUP1 REVERT JUMPDEST DUP4 DUP3 ADD SWAP2 POP PUSH1 0x20 DUP3 ADD DUP6 DUP2 GT ISZERO PUSH2 0x69 JUMPI PUSH1 0x0 DUP1 REVERT JUMPDEST DUP3 MLOAD DUP7 PUSH1 0x20 DUP3 MUL DUP4 ADD GT PUSH5 0x100000000 DUP3 GT OR ISZERO PUSH2 0x86 JUMPI PUSH1 0x0 DUP1 REVERT JUMPDEST DUP1 DUP4 MSTORE PUSH1 0x20 DUP4 ADD SWAP3 POP POP POP SWAP1 DUP1 MLOAD SWAP1 PUSH1 0x20 ADD SWAP1 PUSH1 0x20 MUL DUP1 DUP4 DUP4 PUSH1 0x0 JUMPDEST DUP4 DUP2 LT ISZERO PUSH2 0xBD JUMPI DUP1 DUP3 ADD MLOAD DUP2 DUP5 ADD MSTORE PUSH1 0x20 DUP2 ADD SWAP1 POP PUSH2 0xA2 JUMP JUMPDEST POP POP POP POP SWAP1 POP ADD PUSH1 0x40 MSTORE PUSH1 0x20 ADD DUP1 MLOAD SWAP1 PUSH1 0x20 ADD SWAP1 SWAP3 SWAP2 SWAP1 DUP1 MLOAD SWAP1 PUSH1 0x20 ADD SWAP1 SWAP3 SWAP2 SWAP1 DUP1 MLOAD SWAP1 PUSH1 0x20 ADD SWAP1 SWAP3 SWAP2 SWAP1 POP POP POP PUSH1 0x0 DUP1 SWAP1 POP JUMPDEST DUP5 MLOAD DUP2 LT ISZERO PUSH2 0x1E7 JUMPI PUSH1 0x1 PUSH1 0x0 DUP1 DUP8 DUP5 DUP2 MLOAD DUP2 LT PUSH2 0x10B JUMPI INVALID JUMPDEST PUSH1 0x20 MUL PUSH1 0x20 ADD ADD MLOAD PUSH20 0xFFFFFFFFFFFFFFFFFFFFFFFFFFFFFFFFFFFFFFFF AND PUSH20 0xFFFFFFFFFFFFFFFFFFFFFFFFFFFFFFFFFFFFFFFF AND DUP2 MSTORE PUSH1 0x20 ADD SWAP1 DUP2 MSTORE PUSH1 0x20 ADD PUSH1 0x0 KECCAK256 PUSH1 0x0 PUSH2 0x100 EXP DUP2 SLOAD DUP2 PUSH1 0xFF MUL NOT AND SWAP1 DUP4 ISZERO ISZERO MUL OR SWAP1 SSTORE POP PUSH1 0x1 DUP6 DUP3 DUP2 MLOAD DUP2 LT PUSH2 0x172 JUMPI INVALID JUMPDEST PUSH1 0x20 MUL PUSH1 0x20 ADD ADD MLOAD SWAP1 DUP1 PUSH1 0x1 DUP2 SLOAD ADD DUP1 DUP3 SSTORE DUP1 SWAP2 POP POP PUSH1 0x1 SWAP1 SUB SWAP1 PUSH1 0x0 MSTORE PUSH1 0x20 PUSH1 0x0 KECCAK256 ADD PUSH1 0x0 SWAP1 SWAP2 SWAP1 SWAP2 SWAP1 SWAP2 PUSH2 0x100 EXP DUP2 SLOAD DUP2 PUSH20 0xFFFFFFFFFFFFFFFFFFFFFFFFFFFFFFFFFFFFFFFF MUL NOT AND SWAP1 DUP4 PUSH20 0xFFFFFFFFFFFFFFFFFFFFFFFFFFFFFFFFFFFFFFFF AND MUL OR SWAP1 SSTORE POP DUP1 DUP1 PUSH1 0x1 ADD SWAP2 POP POP PUSH2 0xF1 JUMP JUMPDEST POP DUP3 PUSH1 0x5 DUP2 SWAP1 SSTORE POP DUP2 PUSH1 0x6 DUP2 SWAP1 SSTORE POP DUP1 PUSH1 0x7 DUP2 SWAP1 SSTORE POP POP POP POP POP PUSH2 0x916 DUP1 PUSH2 0x210 PUSH1 0x0 CODECOPY PUSH1 0x0 RETURN INVALID PUSH1 0x80 PUSH1 0x40 MSTORE CALLVALUE DUP1 ISZERO PUSH2 0x10 JUMPI PUSH1 0x0 DUP1 REVERT JUMPDEST POP PUSH1 0x4 CALLDATASIZE LT PUSH2 0x41 JUMPI PUSH1 0x0 CALLDATALOAD PUSH1 0xE0 SHR DUP1 PUSH4 0x45848DFC EQ PUSH2 0x46 JUMPI DUP1 PUSH4 0x4D6A304C EQ PUSH2 0xA5 JUMPI DUP1 PUSH4 0xD459FC46 EQ PUSH2 0xE5 JUMPI JUMPDEST PUSH1 0x0 DUP1 REVERT JUMPDEST PUSH2 0x4E PUSH2 0x30F JUMP JUMPDEST PUSH1 0x40 MLOAD DUP1 DUP1 PUSH1 0x20 ADD DUP3 DUP2 SUB DUP3 MSTORE DUP4 DUP2 DUP2 MLOAD DUP2 MSTORE PUSH1 0x20 ADD SWAP2 POP DUP1 MLOAD SWAP1 PUSH1 0x20 ADD SWAP1 PUSH1 0x20 MUL DUP1 DUP4 DUP4 PUSH1 0x0 JUMPDEST DUP4 DUP2 LT ISZERO PUSH2 0x91 JUMPI DUP1 DUP3 ADD MLOAD DUP2 DUP5 ADD MSTORE PUSH1 0x20 DUP2 ADD SWAP1 POP PUSH2 0x76 JUMP JUMPDEST POP POP POP POP SWAP1 POP ADD SWAP3 POP POP POP PUSH1 0x40 MLOAD DUP1 SWAP2 SUB SWAP1 RETURN JUMPDEST PUSH2 0xAD PUSH2 0x3EF JUMP JUMPDEST PUSH1 0x40 MLOAD DUP1 DUP5 PUSH8 0xFFFFFFFFFFFFFFFF AND PUSH8 0xFFFFFFFFFFFFFFFF AND DUP2 MSTORE PUSH1 0x20 ADD DUP4 DUP2 MSTORE PUSH1 0x20 ADD DUP3 DUP2 MSTORE PUSH1 0x20 ADD SWAP4 POP POP POP POP PUSH1 0x40 MLOAD DUP1 SWAP2 SUB SWAP1 RETURN JUMPDEST PUSH2 0x2F5 PUSH1 0x4 DUP1 CALLDATASIZE SUB PUSH1 0xE0 DUP2 LT ISZERO PUSH2 0xFB JUMPI PUSH1 0x0 DUP1 REVERT JUMPDEST DUP2 ADD SWAP1 DUP1 DUP1 CALLDATALOAD SWAP1 PUSH1 0x20 ADD SWAP1 SWAP3 SWAP2 SWAP1 DUP1 CALLDATALOAD SWAP1 PUSH1 0x20 ADD SWAP1 SWAP3 SWAP2 SWAP1 DUP1 CALLDATALOAD SWAP1 PUSH1 0x20 ADD SWAP1 SWAP3 SWAP2 SWAP1 DUP1 CALLDATALOAD PUSH8 0xFFFFFFFFFFFFFFFF AND SWAP1 PUSH1 0x20 ADD SWAP1 SWAP3 SWAP2 SWAP1 DUP1 CALLDATALOAD SWAP1 PUSH1 0x20 ADD SWAP1 PUSH5 0x100000000 DUP2 GT ISZERO PUSH2 0x14A JUMPI PUSH1 0x0 DUP1 REVERT JUMPDEST DUP3 ADD DUP4 PUSH1 0x20 DUP3 ADD GT ISZERO PUSH2 0x15C JUMPI PUSH1 0x0 DUP1 REVERT JUMPDEST DUP1 CALLDATALOAD SWAP1 PUSH1 0x20 ADD SWAP2 DUP5 PUSH1 0x20 DUP4 MUL DUP5 ADD GT PUSH5 0x100000000 DUP4 GT OR ISZERO PUSH2 0x17E JUMPI PUSH1 0x0 DUP1 REVERT JUMPDEST SWAP2 SWAP1 DUP1 DUP1 PUSH1 0x20 MUL PUSH1 0x20 ADD PUSH1 0x40 MLOAD SWAP1 DUP2 ADD PUSH1 0x40 MSTORE DUP1 SWAP4 SWAP3 SWAP2 SWAP1 DUP2 DUP2 MSTORE PUSH1 0x20 ADD DUP4 DUP4 PUSH1 0x20 MUL DUP1 DUP3 DUP5 CALLDATACOPY PUSH1 0x0 DUP2 DUP5 ADD MSTORE PUSH1 0x1F NOT PUSH1 0x1F DUP3 ADD AND SWAP1 POP DUP1 DUP4 ADD SWAP3 POP POP POP POP POP POP POP SWAP2 SWAP3 SWAP2 SWAP3 SWAP1 DUP1 CALLDATALOAD SWAP1 PUSH1 0x20 ADD SWAP1 PUSH5 0x100000000 DUP2 GT ISZERO PUSH2 0x1DE JUMPI PUSH1 0x0 DUP1 REVERT JUMPDEST DUP3 ADD DUP4 PUSH1 0x20 DUP3 ADD GT ISZERO PUSH2 0x1F0 JUMPI PUSH1 0x0 DUP1 REVERT JUMPDEST DUP1 CALLDATALOAD SWAP1 PUSH1 0x20 ADD SWAP2 DUP5 PUSH1 0x20 DUP4 MUL DUP5 ADD GT PUSH5 0x100000000 DUP4 GT OR ISZERO PUSH2 0x212 JUMPI PUSH1 0x0 DUP1 REVERT JUMPDEST SWAP2 SWAP1 DUP1 DUP1 PUSH1 0x20 MUL PUSH1 0x20 ADD PUSH1 0x40 MLOAD SWAP1 DUP2 ADD PUSH1 0x40 MSTORE DUP1 SWAP4 SWAP3 SWAP2 SWAP1 DUP2 DUP2 MSTORE PUSH1 0x20 ADD DUP4 DUP4 PUSH1 0x20 MUL DUP1 DUP3 DUP5 CALLDATACOPY PUSH1 0x0 DUP2 DUP5 ADD MSTORE PUSH1 0x1F NOT PUSH1 0x1F DUP3 ADD AND SWAP1 POP DUP1 DUP4 ADD SWAP3 POP POP POP POP POP POP POP SWAP2 SWAP3 SWAP2 SWAP3 SWAP1 DUP1 CALLDATALOAD SWAP1 PUSH1 0x20 ADD SWAP1 PUSH5 0x100000000 DUP2 GT ISZERO PUSH2 0x272 JUMPI PUSH1 0x0 DUP1 REVERT JUMPDEST DUP3 ADD DUP4 PUSH1 0x20 DUP3 ADD GT ISZERO PUSH2 0x284 JUMPI PUSH1 0x0 DUP1 REVERT JUMPDEST DUP1 CALLDATALOAD SWAP1 PUSH1 0x20 ADD SWAP2 DUP5 PUSH1 0x20 DUP4 MUL DUP5 ADD GT PUSH5 0x100000000 DUP4 GT OR ISZERO PUSH2 0x2A6 JUMPI PUSH1 0x0 DUP1 REVERT JUMPDEST SWAP2 SWAP1 DUP1 DUP1 PUSH1 0x20 MUL PUSH1 0x20 ADD PUSH1 0x40 MLOAD SWAP1 DUP2 ADD PUSH1 0x40 MSTORE DUP1 SWAP4 SWAP3 SWAP2 SWAP1 DUP2 DUP2 MSTORE PUSH1 0x20 ADD DUP4 DUP4 PUSH1 0x20 MUL DUP1 DUP3 DUP5 CALLDATACOPY PUSH1 0x0 DUP2 DUP5 ADD MSTORE PUSH1 0x1F NOT PUSH1 0x1F DUP3 ADD AND SWAP1 POP DUP1 DUP4 ADD SWAP3 POP POP POP POP POP POP POP SWAP2 SWAP3 SWAP2 SWAP3 SWAP1 POP POP POP PUSH2 0x41C JUMP JUMPDEST PUSH1 0x40 MLOAD DUP1 DUP3 ISZERO ISZERO ISZERO ISZERO DUP2 MSTORE PUSH1 0x20 ADD SWAP2 POP POP PUSH1 0x40 MLOAD DUP1 SWAP2 SUB SWAP1 RETURN JUMPDEST PUSH1 0x60 DUP1 PUSH1 0x1 DUP1 SLOAD SWAP1 POP PUSH1 0x40 MLOAD SWAP1 DUP1 DUP3 MSTORE DUP1 PUSH1 0x20 MUL PUSH1 0x20 ADD DUP3 ADD PUSH1 0x40 MSTORE DUP1 ISZERO PUSH2 0x346 JUMPI DUP2 PUSH1 0x20 ADD PUSH1 0x20 DUP3 MUL DUP1 CODESIZE DUP4 CODECOPY DUP1 DUP3 ADD SWAP2 POP POP SWAP1 POP JUMPDEST POP SWAP1 POP PUSH1 0x0 DUP1 SWAP1 POP JUMPDEST PUSH1 0x1 DUP1 SLOAD SWAP1 POP DUP2 LT ISZERO PUSH2 0x3E7 JUMPI PUSH1 0x1 DUP2 DUP2 SLOAD DUP2 LT PUSH2 0x369 JUMPI INVALID JUMPDEST SWAP1 PUSH1 0x0 MSTORE PUSH1 0x20 PUSH1 0x0 KECCAK256 ADD PUSH1 0x0 SWAP1 SLOAD SWAP1 PUSH2 0x100 EXP SWAP1 DIV PUSH20 0xFFFFFFFFFFFFFFFFFFFFFFFFFFFFFFFFFFFFFFFF AND DUP3 DUP3 DUP2 MLOAD DUP2 LT PUSH2 0x3A0 JUMPI INVALID JUMPDEST PUSH1 0x20 MUL PUSH1 0x20 ADD ADD SWAP1 PUSH20 0xFFFFFFFFFFFFFFFFFFFFFFFFFFFFFFFFFFFFFFFF AND SWAP1 DUP2 PUSH20 0xFFFFFFFFFFFFFFFFFFFFFFFFFFFFFFFFFFFFFFFF AND DUP2 MSTORE POP POP DUP1 DUP1 PUSH1 0x1 ADD SWAP2 POP POP PUSH2 0x34F JUMP JUMPDEST POP DUP1 SWAP2 POP POP SWAP1 JUMP JUMPDEST PUSH1 0x0 DUP1 PUSH1 0x0 PUSH1 0x2 PUSH1 0x0 SWAP1 SLOAD SWAP1 PUSH2 0x100 EXP SWAP1 DIV PUSH8 0xFFFFFFFFFFFFFFFF AND PUSH1 0x4 SLOAD PUSH1 0x3 SLOAD SWAP3 POP SWAP3 POP SWAP3 POP SWAP1 SWAP2 SWAP3 JUMP JUMPDEST PUSH1 0x0 DUP1 PUSH1 0x0 CALLER PUSH20 0xFFFFFFFFFFFFFFFFFFFFFFFFFFFFFFFFFFFFFFFF AND PUSH20 0xFFFFFFFFFFFFFFFFFFFFFFFFFFFFFFFFFFFFFFFF AND DUP2 MSTORE PUSH1 0x20 ADD SWAP1 DUP2 MSTORE PUSH1 0x20 ADD PUSH1 0x0 KECCAK256 PUSH1 0x0 SWAP1 SLOAD SWAP1 PUSH2 0x100 EXP SWAP1 DIV PUSH1 0xFF AND PUSH2 0x473 JUMPI PUSH1 0x0 DUP1 REVERT JUMPDEST DUP7 DUP9 BLOCKHASH EQ PUSH2 0x480 JUMPI PUSH1 0x0 DUP1 REVERT JUMPDEST DUP3 MLOAD DUP5 MLOAD EQ PUSH2 0x48E JUMPI PUSH1 0x0 DUP1 REVERT JUMPDEST DUP2 MLOAD DUP5 MLOAD EQ PUSH2 0x49C JUMPI PUSH1 0x0 DUP1 REVERT JUMPDEST PUSH1 0x6 SLOAD PUSH1 0x5 SLOAD PUSH1 0x1 DUP8 ADD PUSH8 0xFFFFFFFFFFFFFFFF AND MUL ADD NUMBER LT ISZERO PUSH2 0x4C2 JUMPI PUSH1 0x0 SWAP1 POP PUSH2 0x8D5 JUMP JUMPDEST PUSH1 0x2 PUSH1 0x0 SWAP1 SLOAD SWAP1 PUSH2 0x100 EXP SWAP1 DIV PUSH8 0xFFFFFFFFFFFFFFFF AND PUSH8 0xFFFFFFFFFFFFFFFF AND DUP6 PUSH8 0xFFFFFFFFFFFFFFFF AND LT ISZERO PUSH2 0x4FD JUMPI PUSH1 0x0 SWAP1 POP PUSH2 0x8D5 JUMP JUMPDEST PUSH1 0x2 PUSH1 0x0 SWAP1 SLOAD SWAP1 PUSH2 0x100 EXP SWAP1 DIV PUSH8 0xFFFFFFFFFFFFFFFF AND PUSH8 0xFFFFFFFFFFFFFFFF AND DUP6 PUSH8 0xFFFFFFFFFFFFFFFF AND EQ DUP1 ISZERO PUSH2 0x54F JUMPI POP PUSH1 0x0 DUP6 PUSH8 0xFFFFFFFFFFFFFFFF AND EQ ISZERO DUP1 PUSH2 0x54E JUMPI POP PUSH1 0x0 PUSH1 0x3 SLOAD EQ ISZERO JUMPDEST JUMPDEST ISZERO PUSH2 0x55D JUMPI PUSH1 0x0 SWAP1 POP PUSH2 0x8D5 JUMP JUMPDEST PUSH1 0x0 DUP7 EQ ISZERO PUSH2 0x56F JUMPI PUSH1 0x0 SWAP1 POP PUSH2 0x8D5 JUMP JUMPDEST PUSH1 0x0 PUSH1 0x19 PUSH1 0xF8 SHL PUSH1 0x0 PUSH1 0xF8 SHL ADDRESS DUP9 DUP11 PUSH1 0x40 MLOAD PUSH1 0x20 ADD DUP1 DUP7 PUSH31 0xFFFFFFFFFFFFFFFFFFFFFFFFFFFFFFFFFFFFFFFFFFFFFFFFFFFFFFFFFFFFFF NOT AND PUSH31 0xFFFFFFFFFFFFFFFFFFFFFFFFFFFFFFFFFFFFFFFFFFFFFFFFFFFFFFFFFFFFFF NOT AND DUP2 MSTORE PUSH1 0x1 ADD DUP6 PUSH31 0xFFFFFFFFFFFFFFFFFFFFFFFFFFFFFFFFFFFFFFFFFFFFFFFFFFFFFFFFFFFFFF NOT AND PUSH31 0xFFFFFFFFFFFFFFFFFFFFFFFFFFFFFFFFFFFFFFFFFFFFFFFFFFFFFFFFFFFFFF NOT AND DUP2 MSTORE PUSH1 0x1 ADD DUP5 PUSH20 0xFFFFFFFFFFFFFFFFFFFFFFFFFFFFFFFFFFFFFFFF AND PUSH20 0xFFFFFFFFFFFFFFFFFFFFFFFFFFFFFFFFFFFFFFFF AND PUSH1 0x60 SHL DUP2 MSTORE PUSH1 0x14 ADD DUP4 PUSH8 0xFFFFFFFFFFFFFFFF AND PUSH8 0xFFFFFFFFFFFFFFFF AND PUSH1 0xC0 SHL DUP2 MSTORE PUSH1 0x8 ADD DUP3 DUP2 MSTORE PUSH1 0x20 ADD SWAP6 POP POP POP POP POP POP PUSH1 0x40 MLOAD PUSH1 0x20 DUP2 DUP4 SUB SUB DUP2 MSTORE SWAP1 PUSH1 0x40 MSTORE DUP1 MLOAD SWAP1 PUSH1 0x20 ADD KECCAK256 SWAP1 POP PUSH1 0x0 DUP1 SWAP1 POP PUSH1 0x0 DUP1 SWAP1 POP JUMPDEST DUP7 MLOAD DUP2 LT ISZERO PUSH2 0x8CF JUMPI PUSH1 0x0 PUSH1 0x1 DUP5 DUP10 DUP5 DUP2 MLOAD DUP2 LT PUSH2 0x6B5 JUMPI INVALID JUMPDEST PUSH1 0x20 MUL PUSH1 0x20 ADD ADD MLOAD DUP10 DUP6 DUP2 MLOAD DUP2 LT PUSH2 0x6C9 JUMPI INVALID JUMPDEST PUSH1 0x20 MUL PUSH1 0x20 ADD ADD MLOAD DUP10 DUP7 DUP2 MLOAD DUP2 LT PUSH2 0x6DD JUMPI INVALID JUMPDEST PUSH1 0x20 MUL PUSH1 0x20 ADD ADD MLOAD PUSH1 0x40 MLOAD PUSH1 0x0 DUP2 MSTORE PUSH1 0x20 ADD PUSH1 0x40 MSTORE PUSH1 0x40 MLOAD DUP1 DUP6 DUP2 MSTORE PUSH1 0x20 ADD DUP5 PUSH1 0xFF AND PUSH1 0xFF AND DUP2 MSTORE PUSH1 0x20 ADD DUP4 DUP2 MSTORE PUSH1 0x20 ADD DUP3 DUP2 MSTORE PUSH1 0x20 ADD SWAP5 POP POP POP POP POP PUSH1 0x20 PUSH1 0x40 MLOAD PUSH1 0x20 DUP2 SUB SWAP1 DUP1 DUP5 SUB SWAP1 DUP6 GAS STATICCALL ISZERO DUP1 ISZERO PUSH2 0x73C JUMPI RETURNDATASIZE PUSH1 0x0 DUP1 RETURNDATACOPY RETURNDATASIZE PUSH1 0x0 REVERT JUMPDEST POP POP POP PUSH1 0x20 PUSH1 0x40 MLOAD SUB MLOAD SWAP1 POP PUSH1 0x0 DUP1 DUP3 PUSH20 0xFFFFFFFFFFFFFFFFFFFFFFFFFFFFFFFFFFFFFFFF AND PUSH20 0xFFFFFFFFFFFFFFFFFFFFFFFFFFFFFFFFFFFFFFFF AND DUP2 MSTORE PUSH1 0x20 ADD SWAP1 DUP2 MSTORE PUSH1 0x20 ADD PUSH1 0x0 KECCAK256 PUSH1 0x0 SWAP1 SLOAD SWAP1 PUSH2 0x100 EXP SWAP1 DIV PUSH1 0xFF AND PUSH2 0x79D JUMPI PUSH1 0x0 DUP1 REVERT JUMPDEST DUP3 PUSH20 0xFFFFFFFFFFFFFFFFFFFFFFFFFFFFFFFFFFFFFFFF AND DUP2 PUSH20 0xFFFFFFFFFFFFFFFFFFFFFFFFFFFFFFFFFFFFFFFF AND GT PUSH2 0x7D5 JUMPI PUSH1 0x0 DUP1 REVERT JUMPDEST DUP1 SWAP3 POP DUP9 PUSH8 0xFFFFFFFFFFFFFFFF AND PUSH32 0xCE51FFA16246BCAF0899F6504F473CD0114F430F566CEF71AB7E03D3DDE42A41 DUP12 DUP11 DUP6 DUP2 MLOAD DUP2 LT PUSH2 0x811 JUMPI INVALID JUMPDEST PUSH1 0x20 MUL PUSH1 0x20 ADD ADD MLOAD DUP11 DUP7 DUP2 MLOAD DUP2 LT PUSH2 0x825 JUMPI INVALID JUMPDEST PUSH1 0x20 MUL PUSH1 0x20 ADD ADD MLOAD DUP11 DUP8 DUP2 MLOAD DUP2 LT PUSH2 0x839 JUMPI INVALID JUMPDEST PUSH1 0x20 MUL PUSH1 0x20 ADD ADD MLOAD PUSH1 0x40 MLOAD DUP1 DUP6 DUP2 MSTORE PUSH1 0x20 ADD DUP5 PUSH1 0xFF AND PUSH1 0xFF AND DUP2 MSTORE PUSH1 0x20 ADD DUP4 DUP2 MSTORE PUSH1 0x20 ADD DUP3 DUP2 MSTORE PUSH1 0x20 ADD SWAP5 POP POP POP POP POP PUSH1 0x40 MLOAD DUP1 SWAP2 SUB SWAP1 LOG2 PUSH1 0x7 SLOAD PUSH1 0x1 DUP4 ADD LT PUSH2 0x8C1 JUMPI DUP10 PUSH1 0x4 DUP2 SWAP1 SSTORE POP NUMBER PUSH1 0x3 DUP2 SWAP1 SSTORE POP DUP9 PUSH1 0x2 PUSH1 0x0 PUSH2 0x100 EXP DUP2 SLOAD DUP2 PUSH8 0xFFFFFFFFFFFFFFFF MUL NOT AND SWAP1 DUP4 PUSH8 0xFFFFFFFFFFFFFFFF AND MUL OR SWAP1 SSTORE POP PUSH1 0x1 SWAP5 POP POP POP POP POP PUSH2 0x8D5 JUMP JUMPDEST POP DUP1 DUP1 PUSH1 0x1 ADD SWAP2 POP POP PUSH2 0x69B JUMP JUMPDEST POP PUSH1 0x0 DUP1 REVERT JUMPDEST SWAP8 SWAP7 POP POP POP POP POP POP POP JUMP INVALID LOG2 PUSH5 0x6970667358 0x22 SLT KECCAK256 0xB1 0xCC 0xC6 SHL SSTORE 0xB4 0xDD CALLDATALOAD PUSH14 0x6FAA9E533047B09B0CCDDC8AE1C8 0xB0 RETURNDATACOPY 0x5D DUP8 0xCE PUSH28 0x7EE79264736F6C634300060000330000000000000000000000000000 "
				},
				"gasEstimates": {
					"creation": {
						"codeDepositCost": "465200",
						"executionCost": "infinite",
						"totalCost": "infinite"
					},
					"external": {
						"GetAllAdmin()": "infinite",
						"GetLatestCheckpoint()": "2729",
						"SetCheckpoint(uint256,bytes32,bytes32,uint64,uint8[],bytes32[],bytes32[])": "infinite"
					}
				},
				"methodIdentifiers": {
					"GetAllAdmin()": "45848dfc",
					"GetLatestCheckpoint()": "4d6a304c",
					"SetCheckpoint(uint256,bytes32,bytes32,uint64,uint8[],bytes32[],bytes32[])": "d459fc46"
				}
			},
			"storageLayout": {
				"storage": [
					{
						"astId": 342,
						"contract": "contracts/checkpointoracle/contract/oracle.sol:CheckpointOracle",
						"label": "admins",
						"offset": 0,
						"slot": "0",
						"type": "t_mapping(t_address,t_bool)"
					},
					{
						"astId": 345,
						"contract": "contracts/checkpointoracle/contract/oracle.sol:CheckpointOracle",
						"label": "adminList",
						"offset": 0,
						"slot": "1",
						"type": "t_array(t_address)dyn_storage"
					},
					{
						"astId": 347,
						"contract": "contracts/checkpointoracle/contract/oracle.sol:CheckpointOracle",
						"label": "sectionIndex",
						"offset": 0,
						"slot": "2",
						"type": "t_uint64"
					},
					{
						"astId": 349,
						"contract": "contracts/checkpointoracle/contract/oracle.sol:CheckpointOracle",
						"label": "height",
						"offset": 0,
						"slot": "3",
						"type": "t_uint256"
					},
					{
						"astId": 351,
						"contract": "contracts/checkpointoracle/contract/oracle.sol:CheckpointOracle",
						"label": "hash",
						"offset": 0,
						"slot": "4",
						"type": "t_bytes32"
					},
					{
						"astId": 353,
						"contract": "contracts/checkpointoracle/contract/oracle.sol:CheckpointOracle",
						"label": "sectionSize",
						"offset": 0,
						"slot": "5",
						"type": "t_uint256"
					},
					{
						"astId": 355,
						"contract": "contracts/checkpointoracle/contract/oracle.sol:CheckpointOracle",
						"label": "processConfirms",
						"offset": 0,
						"slot": "6",
						"type": "t_uint256"
					},
					{
						"astId": 357,
						"contract": "contracts/checkpointoracle/contract/oracle.sol:CheckpointOracle",
						"label": "threshold",
						"offset": 0,
						"slot": "7",
						"type": "t_uint256"
					}
				],
				"types": {
					"t_address": {
						"encoding": "inplace",
						"label": "address",
						"numberOfBytes": "20"
					},
					"t_array(t_address)dyn_storage": {
						"base": "t_address",
						"encoding": "dynamic_array",
						"label": "address[]",
						"numberOfBytes": "32"
					},
					"t_bool": {
						"encoding": "inplace",
						"label": "bool",
						"numberOfBytes": "1"
					},
					"t_bytes32": {
						"encoding": "inplace",
						"label": "bytes32",
						"numberOfBytes": "32"
					},
					"t_mapping(t_address,t_bool)": {
						"encoding": "mapping",
						"key": "t_address",
						"label": "mapping(address => bool)",
						"numberOfBytes": "32",
						"value": "t_bool"
					},
					"t_uint256": {
						"encoding": "inplace",
						"label": "uint256",
						"numberOfBytes": "32"
					},
					"t_uint64": {
						"encoding": "inplace",
						"label": "uint64",
						"numberOfBytes": "8"
					}
				}
			},
			"userdoc": {
				"methods": {}
			}
		}
	}
}